:020000040000FA
:1000000028030010592000005D2000005F20000040
:100010006120000063200000652000000000000057
:100020000000000000000000000000006720000049
:1000300069200000000000006B2000006D2000001F
:100040006F2000006F2000006F2000006F20000074
:100050006F2000006F2000006F2000006F20000064
:100060006F2000006F2000006F2000006F20000054
:100070006F2000006F2000006F2000006F20000044
:100080006F2000006F2000006F2000006F20000034
:100090006F2000006F2000006F2000006F20000024
:1000A000DF1700006F2000006F2000006F200000AD
:1000B0006F2000006F2000006F2000006F20000004
:1000C0006F2000006F2000006F20000000F002F899
:1000D00000F083F80AA090E8000C82448344AAF15F
:1000E0000107DA4501D100F078F8AFF2090EBAE85D
:1000F0000F0013F0010F18BFFB1A43F0010318475C
:100100000437000014370000103A24BF78C878C1C3
:10011000FAD8520724BF30C830C144BF04680C600D
:1001200070476E2902F05080702902F0B78166296D
:1001300003F0EB82652903F0E882672903F0E5828A
:100140006129AFF3008003681B0A28BF41F08001DA
:10015000692901F0FF87642901F0FC87752901F006
:10016000F9876F2902F03781782902F08481E92923
:1001700002F0B880E42902F0B580F52902F0B280DF
:10018000EF2902F03481F82902F083810368DB094A
:1001900028BF41F08001632902F03585732902F000
:1001A0003A85E32902F04585F32902F04A850020CB
:1001B00070471FB503F0A2FA02F09CFD0400002076
:1001C000002103F085FA401C60600020002103F04C
:1001D00069FAE0601FBD10B510BD02F05EFD11466A
:1001E000FFF7E7FF01F057FE02F032FE03B4FFF71E
:1001F000F2FF03BC02F07CFE30B52F4C246844F0C3
:1002000050042D4D2C602D4C2468C4F3811232B162
:10021000012A08D0022A09D0032A0BD000BF284C9B
:100220002468A3080AE0264C236807E0244C2468CD
:10023000630803E0224C2468E30800BF00BF832466
:10024000204D2C731C09B4FBF0F10C0A2C712970A1
:1002500003242C7307242C7230BD00BF1949097D7B
:1002600011F0200FFAD017490870704700B5024608
:100270000EE010780A2807D112F8010BFFF7EDFF06
:100280000D20FFF7EAFF03E012F8010BFFF7E5FF8F
:1002900010780028EDD100BD0FB408B503A8009078
:1002A0000948009A029900F011F80748FFF7DEFFAD
:1002B00001B05DF814FB000000C00240A8C10F406F
:1002C0000000001000C00040440000101CB50C46A7
:1002D000134607496A4679440090204601F08DFF95
:1002E00004460020694601F09BFF20461CBD00002B
:1002F000471F00007047704770477047FFFFFFFFC0
:1003000020208449086000BF8248006810F0400F38
:10031000FAD00320804908604FF000007F49C1F8FF
:10032000A8017F4908604FF001007E4908604FF046
:100330000B007D4908604FF00100A1F10401086045
:100340004FF0AA00794908604FF055007349C1F891
:100350008C0000BF7648006810F0806FFAD0032050
:10036000744908604FF0AA006C49C1F88C004FF046
:1003700055006E4908604FF023006F4908604FF048
:100380000100A1F1040108604FF0AA006B49086068
:100390004FF05500086000BF6948006810F4806F96
:1003A000FAD00320674908604FF0AA005B49C1F802
:1003B000AC004FF05500614908606348634908602C
:1003C0004FF000005549C1F8C8010846D0F8880030
:1003D000C0F30160032868D15248006810F00300A0
:1003E00006D0012823D002283FD003285CD100E0AA
:1003F00000BF4F480068C0F30E0000F101004FEA53
:1004000040014648D0F88800C0F3074000F10100E1
:10041000B1FBF0F14E4801FB00F13F480068C0B26B
:1004200000F10100B1FBF0F04A4908603CE04048AF
:100430000068C0F30E0000F101004FEA40013748A8
:10044000D0F88800C0F3074000F10100B1FBF0F1E3
:10045000414801FB00F130480068C0B200F10100E2
:10046000B1FBF0F03B4908601EE031480068C0F382
:100470000E0000F101004FEA40012848D0F8880042
:10048000C0F3074000F10100B1FBF0F14FF4FA4076
:1004900001FB00F120480068C0B200F10100B1FB8F
:1004A000F0F02C49086000BF2FE01E48006810F0F3
:1004B000030006D0012810D0022819D0032823D128
:1004C00000E000BF14480068C0B200F101002049FC
:1004D000B1FBF0F01F49086016E00F480068C0B299
:1004E00000F101001C49B1FBF0F01A4908600BE073
:1004F00009480068C0B200F101004FF4FA41B1FBB5
:10050000F0F01449086000BF00BF43F23A0003490D
:1005100008607047A0C10F4004C10F4000C00F40E9
:10052000ACC10F400CC10F4084C00F408CC00F40C5
:1005300088C00F4080C00F40A4C00F40ACC00F4027
:10054000A8C00F40A0C00F40DE872804C4C00F40E1
:1005500000093D0000000010001BB700FF4B5B8A44
:1005600013B1FE4B5A8A01E0FC4B5A69FB4B9B7955
:10057000B2FBF3F140F6F573994205D34FF6F573EC
:10058000994201D2012000E0002070472DE9F0419E
:1005900000260DE006EB4600F049283101EBC007CC
:1005A0000020B880B8603860F86038613875761C13
:1005B000022EEFDBEA4801210268002000F0A8FFCC
:1005C000E748006800F5FF7001F043FA0446A4F51F
:1005D0002A41553902D06FF016057FE0E0480068E7
:1005E0000078EB2812D0DE4800680078E9280DD0AA
:1005F000DB48006800F5E37001F096FBD74908601E
:100600000868D7490A68012100F082FFD4480068D1
:100610000B3001F01EFAD1498880D1480068407B38
:100620008871CF4800680E3001F013FACB49096891
:100630000844CA498881CA480068007C8873C84851
:100640000068113001F005FAC4490882C448006806
:10065000133001F0FEF9C1494882C14800682030DA
:1006600001F062FBBD494861BD480068163001F0E9
:10067000F0F9BA4908830846808889794843B74920
:10068000886008468089098BB44A927B01FB02008E
:10069000B249086208468088401E098A00EB411072
:1006A000AE49898890FBF1F0AC49C8610846006A00
:1006B000C9690844A9494862FFF750FFA7498876ED
:1006C0000846807E012801D1002507E06FF014055F
:1006D0002B466322A349A4A0FFF7DEFD2846BDE810
:1006E000F08170B505460E469D49F0680A68012103
:1006F00000F00EFF002416E028782E280BD106E02B
:10070000202031692144964A12685054641C082CF8
:10071000F6D36D1C06E0287831692144904A1268AE
:1007200050546D1C641C082CE6D3082415E028786E
:100730002E280AD106E0202031692144884A126817
:100740005054641C0B2CF6D306E028783169214400
:10075000834A126850546D1C641C0B2CE7D3202074
:10076000316921447E4A126850540C2406E000206E
:10077000316921447A4A12685054641C202CF6D303
:100780007749F0680A68012100F00CFF70BD01464E
:10079000087808B9012070470878E52801D10220BF
:1007A000F9E7C87A0F2801D10320F4E70420F2E723
:1007B0002DE9F04104466948056A24E068480121B2
:1007C0000268284600F0A4FE6548076813E0384632
:1007D000FFF7DDFFC6B2022E07D1E5606048006872
:1007E000381A20610020BDE8F081012E02D16FF09F
:1007F0001800F8E7203759488088594909680844A3
:10080000B842E4D86D1C5548006A5449C969084487
:10081000A842D3D86FF01800E5E7024613E010783D
:100820000B78984209D0137808782030834204D09E
:1008300010780B78203B984202D1521C491C02E0F0
:100840006FF013007047107810B108780028E6D1D7
:10085000107818B9087808B90020F3E76FF0130092
:10086000F0E7002201E0401C521C082AFBD30022C2
:1008700004E003780B70491C401C521C032AF8D377
:1008800000230B70491E02E000230B70491E0B78F9
:10089000202BF9D07047002204E003780B70491C2C
:1008A000401C521C082AF8D300230B70491E02E09A
:1008B00000230B70491E0B78202BF9D0704778B5B8
:1008C00004460D466E4629462046FFF7E4FF3146B2
:1008D0002046FFF7C6FF00E06D1C28780028FBD1FA
:1008E000307810B12E2028706D1C03E0307828700D
:1008F0006D1C761C30780028F8D1287078BD2DE961
:10090000FF4104460D461548066A55E0144801218A
:100910000268304600F0FCFD1148D0F8008043E04A
:100920004046FFF734FFC7B2042F36D16946404630
:10093000FFF7C5FF69462046FFF76FFF68B908F16A
:100940001A0001F086F8A88008F11C0001F0ECF90B
:100950002860EE600248006818E01EE07000001099
:100960003C0000100E3700004552524F523A2049C9
:100970006E202573206174204C696E6520257520DA
:100980002D207263203D2025640A0000A8EB0000A2
:100990002861002004B0BDE8F081012F02D16FF082
:1009A0001300F7E708F12008FA488088FA49096837
:1009B00008444045B4D8761CF648006AF549C96930
:1009C0000844B042A2D86FF01300E3E770B50446C4
:1009D0000D4629462046FFF792FF06460EB93046DF
:1009E00070BD2846FFF7E4FE06460EB13046F7E735
:1009F00029462046FFF775FE3046F1E72DE9F04124
:100A000004460D4600274FF0FF3800BF08F10100F3
:100A1000804600EB4000DF49283101EBC000007D3B
:100A200018B908EB480001EBC00717B9B8F1010F7E
:100A3000ECDB1FB96FF01500BDE8F081012D0AD184
:100A400039462046FFF75BFF064676B90120387528
:100A500008F1010609E039462046FFF7B7FF0646D0
:100A60001EB90120387508F101063046E4E72DE98A
:100A7000FE4F04460D4616461F464FF00008C54877
:100A8000406AA11EC34A927901FB02000290C1484C
:100A90008088B5FBF0F0029900EB010ABD48808820
:100AA000B7FBF0F01FFA80FBBA488088B5FBF0F185
:100AB00000FB11500190019848B3B748012102682A
:100AC000504600F025FDB34880880199401AB8428D
:100AD00004D8B04880880199401A00E03846814621
:100AE0000198009008E0AC4800680099405C3070C4
:100AF000761C0098401C0090019848440099884258
:100B0000F1D8C8444D44A7EB09070AF1010AA148EE
:100B10008088B7FBF0F0D8B19E488088B7FBF0F032
:100B20001FFA80FB32465946504600F0F1FC9948C6
:100B300080880BFB0066974880880BFB00889548EF
:100B400080880BFB0055934880880BFB1077DA44B4
:100B5000AFB1914801210268504600F0D9FC002055
:100B6000009008E08C4800680099405C3070761C6A
:100B70000098401C00900098B842F3D3B844404617
:100B8000BDE8FE8F2DE9F041044660008149898867
:100B900090FBF1F07F498989451860007D4989887B
:100BA00090FBF1F201FB12067B4801210268284606
:100BB00000F0AEFC78490968881900F04AFF074642
:100BC0004FF6F870874203DBB7F5803F00DA002765
:100BD0003846BDE8F0812DE9F84F04460D4616462B
:100BE000601E00EB40006B49283101EBC00A4FF05A
:100BF0000008DAF8000010B90020BDE8F88FDAF834
:100C00000000B04201D9374601E0DAF8007000BFB9
:100C1000BAF80400FFF7B6FF8346BBF1000F27D1F7
:100C20005C49DAF800008968B0FBF1F201FB1200C0
:100C3000DAF80810884201D10020DEE75549DAF8D9
:100C400000008968B0FBF1F201FB1200DAF808102D
:100C5000401AB8420AD24F49DAF800008968B0FB5E
:100C6000F1F201FB1200DAF80810471A00970EE0C3
:100C700048488068DAF80810401AB84206D2454859
:100C80008068DAF80810401A009000E00097BAF87F
:100C90000400DAF808102A46009BFFF7E8FE8146B8
:100CA0004D44C844A7EB0907DAF8081001EB090026
:100CB00038498968884203D10020CAF8080004E056
:100CC000DAF808004844CAF80800DAF8080040B921
:100CD000BBF1000F01DD584601E0BAF80400AAF8A4
:100CE0000400002F94D1404687E72DE9F0410446E7
:100CF0000E4660002749898890FBF1F025498989D3
:100D0000471860002349898890FBF1F201FB120526
:100D1000214801210268384600F0FAFB1E490968A3
:100D20004819314600F027FE1B4801210268384669
:100D300000F038FCBDE8F0812DE9F04115488689C6
:100D4000048B1FE0144801210268304600F0E0FBEC
:100D5000002512E010490968481900F07AFE58B9D8
:100D60000C488089301A0B49898800FB0150C0F378
:100D70004F073846BDE8F081AD1C06488088A84280
:100D8000E8D8761C034880892044B042DAD8002095
:100D9000F0E70000700000103C0000102DE9FE4F4D
:100DA00004460D4616461F464FF00008B948406AF3
:100DB000A11EB84A927901FB02000290B5488088D2
:100DC000B5FBF0F0029900EB010AB2488088B7FB4E
:100DD000F0F01FFA80FBAF488088B5FBF0F100FB14
:100DE00011500190019800282FD0AB4801210268D2
:100DF000504600F08DFBA74880880199401AB84200
:100E000004D8A44880880199401A00E038468146F9
:100E10000198009008E030789F490968009A88544A
:100E2000761C0098401C0090019848440099884224
:100E3000F1D8994801210268504600F0B3FBC8443C
:100E40004D44A7EB09070AF1010A92488088B7FBD5
:100E5000F0F0D8B18F488088B7FBF0F01FFA80FB24
:100E600032465946504600F09DFB8A4880880BFB6D
:100E70000066884880880BFB0088864880880BFBCA
:100E80000055844880880BFB1077DA44DFB1824834
:100E900001210268504600F03BFB0020009008E072
:100EA00030787D490968009A8854761C0098401C67
:100EB00000900098B842F3D3774801210268504669
:100EC00000F070FBB8444046BDE8FE8F70B50446A4
:100ED000254605E02046FFF755FE054605B12C46A0
:100EE000002DF7D1204670BD2DE9F84F04460D4680
:100EF0001646601E00EB40006649283101EBC00A2F
:100F00004FF00008374626B3DAF8000000BBFFF7C1
:100F100013FF83464FF6FF715846FFF7E6FEAAF827
:100F200004B05D49DAF80C000A68012100F0F0FA1B
:100F3000DAF810101A31584A12688818594600F029
:100F40001AFD5549DAF80C000A68012100F02AFB65
:100F500002E00020BDE8F88FBAF80400FFF7B6FF02
:100F6000AAF804004B49DAF800008968B0FBF1F2F6
:100F700001FB1200CAF8080000BF46488068DAF892
:100F80000810401AB84206D242488068DAF80810C1
:100F9000401A009000E00097BAF80400DAF8081050
:100FA0002A46009BFFF7FAFE81464D44C844A7EB52
:100FB0000907DAF8001001EB0900CAF80000DAF8B6
:100FC000081001EB090033498968884203D10020E9
:100FD000CAF8080004E0DAF808004844CAF8080033
:100FE000DAF8080098B9FFF7A7FE8346BBF1000FB7
:100FF00001D14046AEE7BAF804005946FFF775FE46
:101000004FF6FF715846FFF770FEAAF804B0002FA4
:10101000B3D140469EE770B50546EE682C691E4880
:1010200001210268304600F073FA1B4A29681368F0
:1010300004F11C02981800F087FE1748012102688D
:10104000304600F0AFFA70BD70B50546681E00EB83
:1010500040001049283101EBC0040F49E0680A68DC
:10106000012100F055FA22691C320B4B21681B68E4
:10107000D01800F069FE0849E0680A68012100F014
:1010800091FA0020A080A0602060E06020612075BF
:1010900070BD0000700000103C0000102DE9F05FF2
:1010A00004460D4616461F46DDE90A894FF0000B3F
:1010B00006E00020F749096801F80B000BF1010B6D
:1010C000BBF11F0FF5D3B8F1000F09D0B8F1030F32
:1010D0000CD0B8F1120F0CD0B8F1250F0CD102E0F2
:1010E0004FF0000A0BE04FF0080A08E04FF0120A38
:1010F00005E04FF0240A02E005FB06FA00BF00BF3E
:10110000E549E448006800F01FFEE4480168E14852
:101110000068001D00F018FE5146DE4800680830E7
:1011200000F012FE012F01D1002000E03846D9491D
:1011300009680873D748006880F80E90D5480068A1
:1011400080F80F80B8F1030F02D0B8F1120F04D16C
:10115000D049096881F813A005E02146CD48006810
:10116000113000F00FFE3146CA480068163000F01A
:1011700022FEBDE8F09F7CB5044606231222CDE98D
:1011800000238023002211461046FFF787FF1F230C
:10119000C0484FF400210268C148006800F084FB99
:1011A00005465DBB2423BB484FF480110268BD484F
:1011B000006800F079FB054605BB74B100260AE023
:1011C000B4480068007804F8010BB2480068401C7D
:1011D000B0490860761C242EF2D30D23AD484FF49D
:1011E00080110268AF48006800F05EFB05462DB92B
:1011F000A8480068007B08B16FF0090528467CBD4F
:101200007CB504460D460A232522CDE90023802320
:10121000002211461046FFF741FF1F239D484FF45F
:10122000002102689E48006800F03EFB06463EBB77
:1012300008239848590402689A48006800F034FB73
:101240000646EEB924B19348006800F08BFD20609B
:101250002DB190480068001D00F084FD28600D232A
:101260008C484FF4801102688E48006800F01CFB27
:1012700006462EB987480068007B08B16FF0090662
:1012800030467CBD1CB506230322CDE90023802314
:10129000002211461046FFF701FF1F237D484FF43F
:1012A000002102687E48006800F0FEFA0446DCB9BE
:1012B000122378484FF4801102687A48006800F0E1
:1012C000F3FA044684B90D2372484FF48011026882
:1012D0007448006800F0E8FA04462CB96D480068CC
:1012E000007B08B16FF0090420461CBD1CB5062325
:1012F0000022CDE90023012311461046FFF7CEFE60
:101300001F2364484FF4002102686548006800F01C
:10131000CBFA044684B90D235E484FF4801102686D
:101320006048006800F0C0FA04462CB959480068CB
:10133000007B08B16FF0090420461CBD1CB5554860
:1013400001220368CDE9002300231A46FE21A120D3
:1013500000F000FC044620461CBD2DE9F041044687
:101360000D461646FFF7EAFF4FF050080AE0FFF778
:10137000BDFF074607B908E0FFF784FFA8F10100A9
:1013800000F0FF08B8F1000FF1D100BF47B13B46B4
:101390004122454945A0FEF77FFF3846BDE8F08170
:1013A00021462846FFF72CFF074649492068086078
:1013B0003046FFF7E0FE07463846EFE770B53548A0
:1013C000046800256078022802D06FF00A0070BD22
:1013D0002078044448E06078042802D005283FD1F2
:1013E0000CE06079082808D1A079062805D1E079B9
:1013F000502802D101252078044434E0E07800F040
:101400000300022829D1A07810F0800F12D0201DEF
:1014100000F01FFBA17801F07F01012242EAC11117
:1014200041F4805141EA00401E4909680860207873
:10143000044414E0201D00F00CFBA17801F07F01B2
:10144000012242EAC11141F4006141EA004014491D
:10145000096808602078044401E02078044402E030
:101460002078044400BF00BF0A480068801C00F0D8
:10147000F0FA084909680844A042ACD125B115A08A
:10148000FEF70AFF0020A2E71AA0FEF705FF6FF0A3
:101490000B009CE738000010555342430400001035
:1014A0002400001020000010173700004552524F52
:1014B000523A20496E202573206174204C696E6574
:1014C000202575202D207263203D2025640A000010
:1014D000080000104D6173732053746F726167656B
:1014E0002064657669636520636F6E6E65637465FD
:1014F000640A00004E6F742061204D6173732053A5
:10150000746F72616765206465766963650A0000BF
:101510002DE9FC4704460D461646B1464FF000083B
:1015200004E0002009F8010B08F101083B480068BD
:1015300068434045F5D80A232822CDE900238023BB
:101540002A46364801682046FFF7A8FD1F23344885
:101550004FF4002102683348006800F0A5F90746FF
:10156000EFB92E48006800FB05F332464FF48011B6
:101570002D48006800F098F9074687B90D232848E0
:101580004FF4801102682848006800F08DF9074682
:101590002FB923480068007B08B16FF0090738466F
:1015A000BDE8FC872DE9FC4104460D4616460A239A
:1015B0002A22CDE9002300232A4618480168204644
:1015C000FFF76CFD1F2316484FF4002102681548F1
:1015D000006800F069F90746EFB91048006800FBA1
:1015E00005F332464FF400210E48006800F05CF924
:1015F000074687B90D230A484FF4801102680A484C
:10160000006800F051F907462FB905480068007BD3
:1016100008B16FF009073846BDE8FC8108000010EA
:10162000380000102400001020000010002100E00D
:10163000491C82008A42FBD8704710B5044600233B
:1016400004E04FF47A70FFF7F1FF5B1CA342F8D37C
:1016500010BD002107E0002240F82120C0F88020C2
:10166000C0F88420491C2029F5D37047002101606F
:1016700041608160C160704700210160416081600C
:10168000C160704710B5F848006840F00040F74965
:10169000C1F8C4004FF01F00F549086000BFF548CD
:1016A000006800F01F001F28F9D10320F2490860EC
:1016B000F248C068F24900EA0100F049C8600846F3
:1016C000C068F04940EA0100EC49C860084640683B
:1016D00020F0705048600846406840F0A0504860D4
:1016E000E9A0FEF7D9FDEF4CEF490C6004F58070DE
:1016F000EE49086004F58870ED49086004F59070C3
:10170000EC49086004F59870EB49086004F5A07096
:10171000EA49086004F5A870E949086004F5E87032
:10172000E849086004F58050E7490860E14800682E
:10173000FFF7A2FFE0480068FFF79EFFDF48006860
:10174000FFF79AFFD9480068FFF790FFD848006874
:10175000FFF78CFFD4480068FFF77BFF3220FFF7CC
:101760006CFF0020D94948600862886201208860C7
:10177000D74848630846406820F0C00040F0800029
:1017800048604FF480300865C748006888610846A3
:10179000C068C9680843CD49C860CE48086100BF29
:1017A00018210120884049094FF0E02202EB810115
:1017B000C1F8000100BF00BF1820002805DA002092
:1017C000C000C5490422885404E00020C000C34979
:1017D0001822885400BFC2A0FEF75EFD10BD70B590
:1017E000BA48C46805692C4200D170BD2C4014F081
:1017F000400F3FD0B548406D10F4803F31D0B34822
:10180000006D10F4004F03D00120BA49086024E0B5
:10181000AE48406D10F0010F11D0B748006850B9C4
:101820000020B6490870B64908600120B149086037
:10183000B149086011E0B3A0FEF72EFD0DE0AE48FF
:10184000006838B10020A1490861AA490860AA4986
:10185000086002E0B5A0FEF71FFD4FF480309B4901
:1018600048659A48406D10F4801F03D04FF48010F3
:101870009649486514F0020F0AD00120A04908607B
:101880008A48006800680F2101EA10709B490870BF
:101890008E48C460A9E700BF994800680028FBD0C3
:1018A000002097490860704770B505460E4681488C
:1018B0000068854206D116B94FF0007403E04FF07E
:1018C000407400E0002446F48020204340F0704043
:1018D00076490968086000207549096808607348FE
:1018E00000684260002072490968486070480068DA
:1018F0006E490968886000206D4909688860581E33
:1019000010446A490968C860002069490968C860CC
:10191000A86800F00200654909680843A8606448A7
:10192000006868600020E8606248006885420CD169
:1019300066480562806840F0020064498860084695
:10194000406840F0100048600BE0604885628068A5
:1019500040F004005D4988600846406840F020007F
:101960004860FFF798FF6548007808B9002070BD0F
:101970004FF0FF30FBE703B59DF8041001709DF8B0
:10198000051041700CBD2DE9F04304460D46164686
:101990001F46DDF81C804FF0000906E00020484992
:1019A000096801F8090009F10109C145F6DB44485D
:1019B000006804704248006845703146404800683D
:1019C000801CFFF7D8FF39463D480068001DFFF72F
:1019D000D2FF41463A480068801DFFF7CCFFBDE8C2
:1019E000F0832DE9F84704460D4616461F46DDE90B
:1019F00009893B46324629462046CDF80080FFF74C
:101A0000C2FF08232E48002102682A480068FFF719
:101A10004BFF8246BAF1000F18D1B8F1000F09D080
:101A2000434627484FF40021026822480068FFF728
:101A30003BFF8246BAF1000F08D100231A464FF44B
:101A400080111C480068FFF72FFF82465046BDE812
:101A5000F88708B5014608788DF8000048788DF8B9
:101A60000100BDF8000008BDC4C00F4000C00F4019
:101A7000F4CF0050F8CF005010C1005000C0024019
:101A80000FCF3FFF90208000496E697469616C69D7
:101A90007A696E6720486F737420537461636B0AB0
:101AA0000000000000000820300000102800001096
:101AB0002C0000101C00001020000010240000105A
:101AC000380000103C0000104000001000C0005022
:101AD000DF2E78274200008018ED00E000E400E0EF
:101AE000486F737420496E697469616C697A6564C2
:101AF0000A0000000C000010180000101400001074
:101B00001000001053707572696F757320737461E3
:101B1000747573206368616E67652028636F6E6EED
:101B20006563746564293F0A000000005370757294
:101B3000696F757320737461747573206368616E67
:101B400067652028646973636F6E6E65637465648E
:101B5000293F0A002DE9F84704460D4616461F4660
:101B6000DDE909893B46324629462046CDF800800A
:101B7000FFF709FF08239448002102689348006892
:101B8000FFF792FE8246BAF1000F18D1B8F1000FAC
:101B900009D043468C484FF4801102688B48006896
:101BA000FFF782FE8246BAF1000F08D100231A46E1
:101BB0004FF4002185480068FFF776FE82465046C4
:101BC000BDE8F8877CB582A0FEF766FB00BF8848B9
:101BD00000680028FBD06420FFF72FFD1020854906
:101BE000486500BF8348406D10F0100FFAD14FF4E4
:101BF000801080494865C820FFF71FFD4FF4002082
:101C0000724909680860704808220368CDE900231A
:101C10000023520106218020FFF79CFF044644B1B7
:101C200023464FF4B372744974A0FEF735FB204687
:101C30007CBD65480068C079000464490968086093
:101C4000002300930122052118460193FFF7C9FEE6
:101C5000044644B123464FF4B672674967A0FEF7C5
:101C60001BFB2046E4E70220FFF7E7FC574800682B
:101C7000006840F00100554909680860524809228F
:101C80000368CDE9002300234FF400720621802071
:101C9000FFF760FF044644B123464FF4BA72564939
:101CA00056A0FEF7F9FA2046C2E747480068801CB4
:101CB000FFF7CFFE054644480368CDE900530023F3
:101CC0004FF4007206218020FFF744FF044644B120
:101CD00023464FF4BD72484948A0FEF7DDFA20467E
:101CE000A6E7FFF76BFB044644B1234640F27F12A0
:101CF000414942A0FEF7D0FA204699E7002300931D
:101D00000122092118460193FFF76BFE044634B106
:101D100023464FF4C272384938A0FEF7BDFA64205A
:101D2000FFF78BFC204683E708B5014608788DF85D
:101D3000000048788DF8010088788DF80200C87896
:101D40008DF80300009808BD03B59DF804100170DC
:101D50009DF8051041709DF8061081709DF80710E0
:101D6000C1700CBD08B50146C8788DF800008878B0
:101D70008DF8010048788DF8020008788DF803008E
:101D8000009808BD03B59DF8071001709DF8061076
:101D900041709DF8051081709DF80410C1700CBD54
:101DA00008B5014648788DF8000008788DF80100E4
:101DB000BDF8000008BD03B59DF8051001709DF841
:101DC000041041700CBD0000380000101C00001011
:101DD000436F6E6E6563742061204D617373205391
:101DE000746F72616765206465766963650A0000D7
:101DF0000C00001000C000501F3700004552524F29
:101E0000523A20496E202573206174204C696E651A
:101E1000202575202D207263203D2025640A0000B6
:101E200070B5012160A0FEF7E9FD0446002C2CDD11
:101E3000022160A0FEF7E2FD0546002D19DD5DA23E
:101E400059A15FA0FEF728FA00BF4FF47A626348F9
:101E500001682046FEF7BFFE064632465F4801682D
:101E60002846FFF741F8002EEFD12846FFF7ECF89F
:101E700004E050A15AA0FEF70FFA70BD2046FFF70C
:101E8000E3F85DA0FEF708FA04E047A154A0FEF7CE
:101E900003FAF2E7F1E710B58CB0FEF731FA4FF430
:101EA0006140FEF7A9F9FFF7EDFBFFF78BFE044653
:101EB00094B901AA0BA90AA8FFF74FFA04464CB936
:101EC000FEF764FB044614B9FFF7AAFF06E0002002
:101ED0000CB010BD0020FBE70020F9E700BFFEE7D3
:101EE00070B5012130A0FEF789FD0546002D15DDF6
:101EF0002DA145A0FEF7D0F900BF4FF47A62374814
:101F000001682846FEF767FE0446002CF5D12846F6
:101F1000FFF79AF841A0FEF7BFF904E022A130A034
:101F2000FEF7BAF970BDFDE72DE9F04101211EA0D1
:101F3000FEF764FD0546002D30DD4FF47A62274838
:101F400001682846FEF747FE02211AA0FEF756FD5B
:101F50000446002C18DD002616A134A0FEF79CF9DB
:101F600000BF4FF47A621D4801682046FEF7BCFFAF
:101F700007463E4432488642F3D32046FFF764F8D2
:101F800030A0FEF789F905E00AA115A0FEF784F953
:101F9000BDE8F0812846FFF757F804E002A110A041
:101FA000FEF77AF9F4E7F3E74D53524541442E54D6
:101FB000585400004D5357524954452E545854001C
:101FC000436F7079696E672066726F6D202573208C
:101FD000746F2025732E2E2E0A0000004000001082
:101FE000436F756C64206E6F74206F70656E206631
:101FF000696C652025730A00436F707920636F6DEB
:10200000706C657465640A0052656164696E67206E
:1020100066726F6D2025732E2E2E0A005265616444
:1020200020436F6D706C6574650A000057726974A7
:10203000696E6720746F2025732E2E2E0A00000013
:1020400080969800577269746520636F6D706C6537
:102050007465640A0000000008480047FEE7FEE7D8
:10206000FEE7FEE7FEE7FEE7FEE7FEE7FEE7FEE748
:1020700003480449024A044B70470000CD000000A9
:1020800028010010280300102801001070B5044634
:10209000856900683026C10600D42026C0070AD111
:1020A00007E0D4E9012130469047206A00F10100A1
:1020B00020626D1EF5D570BD70B504468569006857
:1020C000C0070AD007E0D4E9012120209047206A08
:1020D00000F1010020626D1EF5D570BD09684A054A
:1020E00001D540B27047C905FCD500B270470968F8
:1020F0004A0501D5C0B27047C905FCD580B270470A
:1021000070B505460C46012A01D101200BE0286874
:10211000800600D5EA69002000E0401C904202D20F
:10212000215C0029F9D1A9692618091AA961296A2F
:10213000014428462962FFF7A9FF04E0D5E90121FF
:1021400014F8010B9047B442F8D32846FFF7B4FFC8
:1021500070BD00002DE9F041804600261068752909
:10216000414615A512D0FFF7B9FF002803DAC0F1E8
:10217000000012A508E0D8F800108A0701D510A5C4
:1021800002E0490704D50FA5012601E0FFF7AFFFE4
:10219000002408F1240704E000F077FD30313955C0
:1021A000641C0028F8D133462A4621464046BDE843
:1021B000F04100F094BA0000000000002D00000083
:1021C0002B0000002000000011680268006A53051F
:1021D00001D508700AE0D30501D5088006E0130692
:1021E00002D5C21705C101E0520608600120704700
:1021F00001694A1C02610878704710B50C461946FF
:1022000090B0CDE9024200220692044A7A44CDE918
:10221000042001A800F04EF910B010BDE1FFFFFF4F
:102220000A6802F8010B0A60704700002DE9FF5FA1
:1022300004468A461546DFF8A880F8440027D8E906
:1022400000013E46CDE9020111E03AF81610684659
:1022500002AA00F0FAFC411C07D02168890603D5C8
:10226000E269391891420ED8074406F10106206848
:10227000800602D5E069B84205DDAE42E5DB3AF8FA
:1022800016000028E1D1A069C01BA0612046FFF71D
:10229000FDFED8E90001CDE90201002015E03AF881
:1022A0001810684602AA00F0D0FC8146401C0AD0F3
:1022B000EB46002505E0D4E901211BF80500904715
:1022C0006D1C4D45F7D308F10100B0428046E6DBB6
:1022D000206A384420622046FFF7EEFEBDE8FF9FEB
:1022E000EE1400002DE9F04782464FF00008D21DA1
:1022F00022F00700F52960C81AA714D00023E81AB5
:1023000076EB030104DA6D4266EB460616A708E099
:10231000DAF80000810701D514A702E0400702D5D2
:1023200013A74FF0010800240AF124090BE03146FD
:10233000284600F08FF902F1300205460E4609F8F2
:10234000042004F10104002386EA030185EA030066
:102350000843ECD143463A4621465046BDE8F04793
:1023600000F0BDB9000000002D0000002B000000AF
:10237000200000002DE9F003074615461E46002404
:1023800000F124080DE005F0070000F130004FEAED
:10239000D50545EA467508F8040004F101044FEA42
:1023A000D606002386EA030185EA03000843EAD142
:1023B000386811A2010708D500F02000204304D09E
:1023C000F86901230DA2401EF86121463846BDE898
:1023D000F00300F084B910B5044621461068FFF7F9
:1023E00086FE02462046BDE810400023C2E7D21D0B
:1023F00022F007010CC9BDE700000000300000001A
:102400002DE9F00F80468A4615461E4600680005F5
:1024100002D5274F7F4402E0254F7F440E3700242A
:1024200008F124090CE005F00F004FEA1515385C9F
:1024300045EA06754FEA161609F8040004F101048E
:10244000002386EA030185EA03000843EBD13A46FC
:10245000D8F80000000708D5BAF1700F02D1103289
:10246000012302E00CB11132022321464046BDE8AF
:10247000F00F00F034B970B504460D4621461068DF
:10248000FFF735FE024629462046BDE8704000238E
:10249000B6E7D21D22F007030CCBB1E70368126840
:1024A00043F0200303600823C3610023A8E7000072
:1024B0001C1300002DE9F05F4FF0000B0546894624
:1024C0004FF0010AC0F820B02846E9688847002884
:1024D0007ED0252802D0D5E90121B1E05C4F00264D
:1024E0007F442846E96888472028044608DB312CC9
:1024F00006D207EB040010F8200C08B10643F0E701
:10250000B00701D526F00406C5F81CB00027C5F8B1
:1025100018B02A2C10D1284659F8041B05EB870265
:102520009161E9688847012F044628D1E8690028AD
:1025300030DA26F020062DE0A4F1300052460A28B9
:1025400001461AD2CAB105EB8700924680468161E6
:1025500008E0D8F8180000EB800004EB40003038A9
:10256000C8F818002846E968884704465046A4F190
:1025700030010A2901D20028EBD1012F0AD02E2CDC
:1025800008D12846E96888477F1C0446022F46F098
:102590002006BEDBA869002803DA404246F00106A7
:1025A000A861F00701D026F010066C2C01D0682C31
:1025B00018D127462846E9688847B84204460BD117
:1025C00080206C2F00D0C000E9680643284600E058
:1025D0003BE08847044615E040206C2F00D0800087
:1025E00006430FE04C2C05D06A2C03D0742C01D08C
:1025F0007A2C07D158464C2CE6D080206A2CE3D0A8
:102600000020E1E70CB3A4F14100192802D82034DE
:1026100046F400664A46214628462E604E46FDF79F
:1026200080FD50B1012802D106F104094CE7F61DE6
:1026300026F0070000F1080946E7D5E90121204608
:102640009047286A401C28623EE7286ABDE8F09F50
:102650007812000030B5B0F10A024FEA900E71F125
:1026600000034EEA817EB0EB0E0061EB91014FEA70
:10267000101E4EEA017E10EB0E0041EB11114FEAE5
:10268000102E4EEA016E10EB0E0041EB11214FEAC5
:10269000104E4EEA014E10EB0E0041EB1141401876
:1026A00041F100014FEAD00040EA41704FEAD10108
:1026B00010EB80054FEA810444EA907444EB010476
:1026C0006D1944EB0404521BA3414FF0000348BFB3
:1026D0000A3200D530BD401C41F1000130BD2DE96A
:1026E000F0470D4604469246994600F124080168D9
:1026F000880604D5E06921F01001216000E0012086
:102700000027A84201DDA0EB0507A16907EB050240
:1027100002EB0900A1EB0000A0612068C00602D412
:102720002046FFF7B3FC002608E0D4E901211AF89F
:1027300006009047206A401C761C20624E45F4DB60
:102740002068C0060AD52046FFF7A0FC06E0D4E9C1
:10275000012130209047206A401C2062381EA7F1DA
:102760000107F4DC07E0D4E9012118F805009047DF
:10277000206A401C2062281EA5F10105F3DC2046DA
:10278000FFF79AFC21680220090600D40120BDE869
:10279000F08770472DE9FF4F0C4698468DB0D2E97F
:1027A0000010DDF868A0CDE90810C0F30A550DB996
:1027B0004FF0FF35002108464FF00000099900F462
:1027C0004000002905DA00EB80004FF4400101EAE7
:1027D00050004FEA905BBBF1010F01DD4FF0FF3B72
:1027E000DDE9080150EA410016D1BAF1010F02D12A
:1027F0006FEA080207E0302101E02154401C404507
:10280000FBDB40460022002121540D99C1E9010A59
:102810000A6011B0BDE8F08FA5F2FF3544F6105004
:102820004543CBF100000B904FEA2549BAF1000F68
:1028300003D1A9EB08056D1C01E0C8F100050B9A56
:10284000002D00DC5A46294601DAC5F1000103A833
:1028500000F094FADDE9081000F054FBA0F50050F8
:102860001F388DE807000398002D09DD42F21F0193
:102870005A46084403A90390684600F0B4FD08E0F6
:10288000A0F500505A461F3803A90390684600F08F
:10289000BEFD8DE807000004000C03D04FF0FF35AB
:1028A0006E0801E00E461546BAF1000F26D14746E4
:1028B00008E031462846FFF7CDFE02F1300205461A
:1028C0000E46E2557F1EF4D50023012786EA030158
:1028D00085EA03000843CDF81C8003D0002709F1E6
:1028E000010005E02078302803D10027A9F101007C
:1028F0008146002FCDF8189098D036E000200A903D
:1029000007460CE0112F11DA31462846FFF7A2FEE8
:1029100002F1300205460E46E25507F10107002399
:1029200086EA030185EA03000843EBD1002386EA27
:10293000030185EA0300084310D13846002104E072
:10294000235C625C6354491C2254401E8142F7DBC5
:10295000A7EB0800401ECDE9060706E00A9820B95B
:102960004FF011084FF0000A60E7079A0020A054CA
:102970000D98C0F808A0079941600699016048E7E2
:102980002DE9F04F04468846D21D22F0070091B091
:10299000D0E90010CDE902100146029800F06DFE6A
:1029A0000399CA0F4FF02D0106D122682B219307FE
:1029B00002D4202101EAC20103288B4601D0072856
:1029C00006DB5B4602464146204600F099F90EE1DF
:1029D0002068800601D5E76900E006271120B8F1DC
:1029E000650F1ED0B8F1660F29D0B8F1670F66D118
:1029F000012F00DA01270023112F009300DC384655
:102A0000034602AA06A90EA8FFF7C4FE20683D46A9
:102A10000026000736D40F98A84200DA054606A81B
:102A200029E00023112F009300DA781C034602AA44
:102A300006A90EA8FFF7AEFE00267D1C28E00123A4
:102A40004FF0004902AA06A90EA800933B46FFF7E3
:102A5000A1FEDDE90F50002620B90E9907F1010013
:102A600001EB0005781B02D47D1CC0F1FF36A5EBFD
:102A7000070A24E06D1E012D04DD411911F8011C27
:102A80003029F7D00E98B84202DA10F1040F03DAB9
:102A90004FF0010A0E9811E0002802DC2D1A0644BE
:102AA00005E0401CA84202DD0E9D05F101050E98CF
:102AB000A0EB060000F1010A4FF0004081462068BB
:102AC000000703D4AA4501DB4FF0FF3A0020B9F11B
:102AD000004F0DF117078DF8170024D04FF00208B2
:102AE0002B20B9F1000F01900BDA2D20C9F100095C
:102AF000019006E0484600F0C8F83031814607F8FA
:102B0000011DB8F10000A8F10108F3DCB9F1000FD4
:102B1000F0D1019807F8010D21684520090500D47E
:102B2000652007F8010D04A8A0EB070000F10708D5
:102B30005FEA0B0000D0012000EB050101EBEA7118
:102B400001EB0800A169A1EB0000A0F10100A06168
:102B50002068C00602D42046FFF798FABBF1000FA8
:102B600007D05846D4E901219047206A00F10100BE
:102B700020622068C00625D52046FFF787FA21E0AD
:102B8000002E07DB0F98B04204DD06A8D4E901212E
:102B9000805D02E0D4E9012130209047206A401C8A
:102BA0002062761CAAF101005FEA000A0AD100F057
:102BB000A1F8C0680168405CD4E901219047206A0F
:102BC000401C2062281EA5F10105D9DC07E0D4E9EC
:102BD000012117F8010B9047206A401C2062B8F1D0
:102BE0000000A8F10108F2DC2046FFF765FA022098
:102BF0000FE610B5436913B1AFF3008001E0FFF7B2
:102C00007FFA012010BD126800F124010A70002231
:102C10004A700122EDE711684FF0FF32E9E710B585
:102C2000436913B1AFF3008001E0FFF7FFFA012021
:102C300010BD126800F1240182840022C2840122A6
:102C4000EDE711684FF0FF32E9E770B505460C4635
:102C5000164600F047F8006890F8011101290AD1E2
:102C60003246D0F80711431821462846BDE8704087
:102C700003F207131847FF2C04D8005D10B10120A0
:102C80002C7070BD4FF0FF3070BD4FF00A01B0FBEB
:102C9000F1F202FB110110467047754600F0DEF8B4
:102CA000AE4605006946534620F00700854618B039
:102CB00020B5FFF7DDF9BDE820404FF000064FF0EA
:102CC00000074FF000084FF0000B21F00701AC4661
:102CD000ACE8C009ACE8C009ACE8C009ACE8C00980
:102CE0008D46704710B500F005F8001D10BD0000BE
:102CF000E10900000148704770470000E80000103B
:102D00002DE9F04104461F4603260168072A01F415
:102D1000006003DB15A520B915A502E015A500B9D3
:102D200015A521F010002060A069C01EA0610FB1A0
:102D3000401EA0612046FFF7A9F90FB9206A06E0FE
:102D4000D4E9012138469047206A401C2062C01C0B
:102D5000206204E0D4E9012115F8010B9047761EAA
:102D6000F8D22046FFF7A8F9BDE8F0814E414E00A9
:102D70006E616E00494E4600696E66002DE9F047AF
:102D8000174681468AB0314A7A4407A838CA01F505
:102D9000DC5101F11B0138C038CA4FF0370204A8DA
:102DA00038C091FBF2F0A0F1800502FB10141B3C2F
:102DB00002D56442012000E00020DFF890A08046A8
:102DC0000026FA44AAF1B60A0DE0E00709D03A4617
:102DD00006EB46000AEB800107A800F018FB07ABE2
:102DE00007C36410761C002CEFD1DFF860A001AEA1
:102DF000FA44AAF1A80A16E0E80712D00AEB041078
:102E000090E80E0086E80E00C068F84202D10398F0
:102E1000384403903A4601A904A800F0F8FA04AB3C
:102E200007C36D10641C002DE6D13A46B8F1000FBF
:102E300007A904A802D000F0D6FA01E000F0E7FAF2
:102E4000A9E807000AB0BDE8F0870000600A0000AA
:102E50000446AFF300802046FDF7C8F900487047EC
:102E6000C80000104FF0013C50F8042B51F8043B0F
:102E70009A4221D1A2EB0C03934313EACC1317D14E
:102E800050F8042B51F8043B9A4215D1A2EB0C03E5
:102E9000934313EACC130BD150F8042B51F8043BA5
:102EA0009A4209D1A2EB0C03934313EACC13DBD073
:102EB0004FF0000070470000D01A01BAB1FA81F15A
:102EC00001F0180122FA01F0CB40C1F12001DBB280
:102ED000C0B2C01A2CFA01F3D11A914311EAC311FE
:102EE000E6D170470148704770470000CC000010E1
:102EF00003494FF01800ABBE70470000FFD3FFFF3F
:102F0000260002005FEA400C08BF91F0000F4FEA74
:102F10008C234FEAC12243EA51514FEA1C5018BF9B
:102F200000F5F0404FEA300018BF41F000415FEA81
:102F30006C5C00F02980BCF1FF3F08BF40F080408E
:102F40007047130C06BF12044FF0100C4FF0000C2A
:102F5000130E04BF12020CF1080C130F04BF120170
:102F60000CF1040C930F04BF92000CF1020CD30F70
:102F700004BF52000CF1010C11464FF00002A0F109
:102F80001F00A0EB0C00704711F0004F08BF704706
:102F900031F000413FF4D5AF0B0C06BF09044FF0F0
:102FA000100C4FF0000C0B0E04BF09020CF1080CC2
:102FB0000B0F04BF09010CF1040C8B0F04BF890037
:102FC0000CF1020CCB0F04BF49000CF1010CCCF149
:102FD0002003A0EB0C0022FA03F302FA0CF241EA00
:102FE000030100F10100704720F07F4C80EA0300EC
:102FF00023F07F47ACEB070303F57C5300F0004060
:1030000003F1FF032DE980494FEA154B09B44FEA5C
:10301000144325EA0B4E24EA03480FF2042606EB7C
:10302000132749083E785FEA320203FB0667C7F5BB
:10303000000707FB06F64FEA54374FEAD64606F17B
:10304000020607FB066CCCF1005C4FEA1C472CEA39
:10305000074C07FB06F40CFB06F504EB15464FEA9C
:10306000961634BF00204FF000404FEAD13706FBE0
:1030700007FC4FEA1C4C0CFB0BF7D21B03FB0CF7B5
:1030800061EB07010CFB0EF7B0EB074072EB174248
:103090000CFB08F734BFA2EB0742B2EB074261EB2F
:1030A00017414FEA0C444FEA910706FB07FC4FEA31
:1030B0001C4C0CFB0BF7B0EBC74072EB573203FB19
:1030C0000CF734BFA2EBC742B2EBC74261EB5731FA
:1030D0000CFB0EF7B0EBC70072EB57720CFB08F756
:1030E00034BFA2EBC702B2EBC70261EB5771039F7B
:1030F0004FEA816141EA921104EBCC044FEAD137E7
:103100004FEA826206FB07FC42EA90124FEA8060B7
:103110004FEA1C4C0CFB0BF7D21B03FB0CF761EBCB
:1031200007010CFB0EF7B0EB074072EB17420CFBEC
:1031300008F734BFA2EB0742B2EB074261EB17413D
:103140004FEA8C554FEA910704EB9C2406FB07FCE1
:103150004FEA1C4C0CFB0BF7B0EBC74072EB57323D
:1031600003FB0CF734BFA2EBC742B2EBC74261EBE3
:1031700057310CFB0EF7B0EBC70072EB57720CFB2C
:1031800008F734BFA2EBC702B2EBC70261EB57717D
:1031900015EB4C254FEA816141EA92114FEA8262B8
:1031A0004FEAD13742EA901206FB07FC44F10004D3
:1031B0004FEA80604FEA1C4C0CFB0BF7D21B03FB61
:1031C0000CF761EB07010CFB0EF7B0EB074072EB5D
:1031D00017420CFB08F734BFA2EB0742B2EB0742E1
:1031E00061EB174115EB1C154FEA813141EA924121
:1031F0004FEA823242EA90424FEA80304FEA0C7640
:1032000044F1000448EA03434EEA0B484FF0000E35
:10321000B2EB080C71EB030724BF624639464EEB54
:103220000E0E4FF0000B0018524149414BEB0B0BB7
:10323000B2EB080C71EB03077BF1000B24BF624675
:1032400039464EEB0E0E4FF0000B0018524149412B
:103250004BEB0B0BB2EB080C71EB03077BF1000B94
:1032600024BF624639464EEB0E0E51EA020718BFE4
:1032700046F0010616EB0E7655F1000254F10001FE
:1032800003D5BDE88901BDE80088BDE88901BDE836
:103290000048B619524141EB0101A3F10103704707
:1032A00080807F7E7D7C7B7A797877767675747383
:1032B000727171706F6E6E6D6C6C6B6A6A69686842
:1032C000676666656464636362616160605F5F5ED8
:1032D0005E5D5D5C5C5B5B5A5A595958585757564E
:1032E00056555555545453535252525151505050B3
:1032F0004F4F4F4E4E4D4D4D4C4C4C4B4B4B4A4A05
:103300004A49494948484847474747464646454548
:103310004544444444434343434242424241414181
:10332000002B26D4770021D01CB54FEA370703B411
:103330004FF010004FF010014FF000000FBCBDE83F
:1033400010400BF1010BBBF1010F08BF5FEA17073B
:1033500022BF12F1010211F101014FF0004143F1CE
:10336000000300F0004043EA00007047F9D357081B
:10337000DAE746EA064613F1400F4FEA16461FDD2C
:1033800013F1200FDFBF16430A46002120335B42B2
:10339000C8D0C3F1200746EA064602FA07F74FEA0B
:1033A000164646EA0706C3F1200722FA03F201FA9D
:1033B00007F721FA03F14FF0000342EA0702B1E7F1
:1033C00046EA020646EA06464FEA164646EA01067D
:1033D000BCBF46EA0646360C4FF000034FF0000231
:1033E0004FF000019EE72DE9C048934630B491E8C4
:1033F000380007C831EA400C48BF34EA430C03D513
:10340000FFF7F2FDFFF78CFFF0BCBDE800882DE967
:10341000C048934630B491E8380007C810F0804F98
:1034200008BF13F0804F03D100F005F8FFF778FFD5
:10343000F0BCBDE8008820F07F4780EA030023F05D
:103440007F4C07EB0C03A3F57C5300F00040A3F185
:10345000FE0392F0000F00F0B38095F0000F00F033
:1034600077802DE901494FEA11404FEA144621EADD
:10347000004800FB06FC24EA064708FB06F607FBAB
:1034800008F800FB07F718EB06484CEB164C4FEA20
:10349000124B18EB07484FEA15464CEB174022EA4F
:1034A0000B4E0BFB06FC25EA06470EFB06F607FB58
:1034B0000EFE0BFB07F71EEB064E4CEB164C4FF0C7
:1034C00000061EEB074E4CEB174B18EB0B0840F1B8
:1034D000000018EB0E0B58EB000840F100008F1AAB
:1034E0004FF000013CBFC943661B14BFB5EB040C91
:1034F00000213CBFC943F61B4FEA17444EEA8E0E2B
:1035000027EA04454FEA1C4704FB07622CEA074CF4
:1035100005FB07F70CFB05F604FB0CFC16EB074656
:1035200042EB174216EB0C4642EB1C421BEB060625
:1035300058EB0202414146EA9E0601D5BDE80189E9
:10354000B619524141EB0101A3F10103BDE8018924
:103550004FEA14454FEA114724EA054621EA074C91
:1035600005FB07F406FB07F70CFB06F105FB0CFC5B
:1035700011EB074144EB17444FEA124711EB0C41A2
:1035800044EB1C4422EA074C05FB07F206FB07F755
:103590000CFB06F605FB0CFC16EB074642EB17424C
:1035A00016EB0C4642EB1C456A1854F1000148BF6B
:1035B0007047B619524141EB0101A3F10103704775
:1035C00095F0000F37D04FEA11424FEA144721EA35
:1035D000024624EA074C02FB07F106FB07F70CFB47
:1035E00006F402FB0CFC14EB074441EB17414FEAD5
:1035F000154714EB0C4441EB1C4125EA074C02FB38
:1036000007F506FB07F70CFB06F602FB0CFC16EBB6
:10361000074645EB174516EB0C4645EB1C421219C5
:1036200051F1000148BF7047B619524141EB010109
:10363000A3F1010370474FEA14454FEA114724EA0A
:10364000054621EA074C05FB07F106FB07F70CFBD3
:1036500006F24FF0000605FB0CFC12EB074241EBB3
:10366000174112EB0C4251EB1C4148BF70479218B6
:1036700041EB0101A3F101037047490050EAC12069
:1036800018BF04204A0D18BF40F0010040F2FF723D
:10369000B2EB515F08BF40F00200012808BF0520CF
:1036A0007047000010B500290AD00878002807D01C
:1036B00005487844FFF7D6FB002801D0002010BD54
:1036C0000248784410BD0000620100005A01000069
:1036D00010B500290AD00878002807D0054878449A
:1036E000FFF7C0FB002801D0002010BD024878443D
:1036F00010BD0000520100004A01000010B5FFF7A4
:10370000F1FB4FF00001016010BDFFF739B94641F0
:10371000545F496E6974004D535F496E6974004887
:103720006F73745F456E756D446576000000000030
:1037300000000000303132333435363738394142F9
:103740004344454640305800303132333435363703
:1037500038396162636465664030780004000008AF
:103760000000000000000002000100001000000046
:1037700002400000000000A0000000000540000022
:10378000000000C8000000000C4000000000409C49
:1037900000000000194000000020BCBE0000000036
:1037A00034400000BFC91B8E00000004B54000007B
:1037B000504BCFD06607E2CF010000006C41000003
:1037C0003E8251AADFEEA73401000000D94200007A
:1037D000DCB5A0E23A301F97FFFFFFFFB4450000C1
:1037E000FD25A0C8E9A3C14FFFFFFFFFFF3F000079
:1037F0000000008000000000FF3F0000000000808B
:1038000000000000403900000000001044000000EB
:10381000080100001C00000043000000F8FFFFFF4B
:103820000C0000000E0000000F0000002E00000041
:103830001001000043000000F8FFFFFF004040407F
:103840004040404040404141414141404040404073
:10385000404040404040404040404040400502021F
:1038600002020202020202020202020202202020DE
:10387000202020202020200202020202020290903A
:103880009090909010101010101010101010101038
:10389000101010101010101002020202020288888C
:1038A0008888888808080808080808080808080898
:1038B0000808080808080808020202024000000080
:1038C00000000000000000000000000000000000F8
:1038D00000000000000000000000000000000000E8
:1038E00000000000000000000000000000000000D8
:1038F00000000000000000000000000000000000C8
:1039000000000000000000000000000000000000B7
:1039100000000000000000000000000000000000A7
:103920000000000000000000000000000000000097
:103930000000000000000000000000000000000087
:1039400000093D0000000000000000000000000031
:103950000000000000000000000000000000000067
:103960000000000000000000000000000000000057
:103970000000000000000000000000000000000047
:043980000000000043
:04000005000000CD2A
:00000001FF
