:020000040000FA
:10000000D0420010E1000000E5000000E700000021
:10001000E9000000EB000000ED000000000000001F
:10002000000000000000000000000000EF000000E1
:10003000F100000000000000F3000000F5000000E7
:10004000F7000000F7000000F7000000F7000000D4
:10005000F7000000F7000000F7000000F7000000C4
:10006000F7000000F7000000F7000000F7000000B4
:10007000F7000000F7000000F7000000F7000000A4
:10008000F7000000F7000000F7000000F700000094
:10009000F7000000F7000000F7000000F700000084
:1000A000830C0000F7000000F7000000F7000000DC
:1000B000F7000000F7000000F7000000F700000064
:1000C000F7000000F7000000F7000000DFF80CD098
:1000D00000F0D2F80048004707020000D0420010AC
:1000E00005480047FEE7FEE7FEE7FEE7FEE7FEE71E
:1000F000FEE7FEE7FEE7FEE7CD00000010B500F0EA
:1001000033FA0F2000F073F810BD10B5082000F08E
:1001100062F810BD10B5082000F069F810BD10B5E8
:100120001348007818B1042000F055F802E00420CC
:1001300000F05DF810BD704710B50446022C02D0E7
:10014000032C06D102E001F01FFA02E001F0F4F9FD
:1001500000BF00BF10BD70477047704770477047C1
:1001600070477047704770477047704770477047D7
:100170000700001000212BE001228A40024213D028
:10018000032908DA364A526B364B53F821301A43AA
:10019000334B5A631BE0324A526D324B53F82130D5
:1001A0001A432F4B5A6512E0032908DA2C4A526B86
:1001B0002C4B53F821309A43294B5A6307E0284AC5
:1001C000526D284B53F821309A43254B5A65491CF0
:1001D0000829D1DB704710B5044623480068204346
:1001E0002149086008460068FFF7C4FF10BD10B53C
:1001F00004461D480068A0431B4908600846006883
:10020000FFF7B8FF10BD10B5002404E01748005DEB
:1002100017490855641CB4F5805FF7D31048006A8D
:1002200040F030400E4908620846006C40F07C0007
:1002300008641048006840F08050C1F8800008460B
:10024000D0F8940020F08050C1F8940000F058F8E5
:1002500000F0CAFB012000F00DFC00BFFEE700002B
:1002600000C009204400001040000010231C0000C2
:100270006400001080C00920064C074D06E0E068CD
:1002800040F0010394E8070098471034AC42F6D3DD
:10029000FFF720FF242C0000442C000002E008C8D7
:1002A000121F08C1002AFAD170477047002001E0F0
:1002B00001C1121F002AFBD1704700000706000091
:1002C00000000000390100000000000000000000F4
:1002D000000000000000000000000000000000001E
:1002E000000000000000000000000000000000000E
:1002F000000000000000000000000000FFFFFFFF02
:1003000020208649086000BF8448006810F0400F34
:10031000FAD00320824908604FF000008149C1F8FB
:10032000A801814908604FF00100804908608048B9
:10033000804908604FF00100A1F1040108604FF00E
:10034000AA007D4908604FF055007649C1F88C003D
:1003500000BF7A48006810F0806FFAD00320784917
:1003600008604FF0AA006F49C1F88C004FF05500AB
:10037000714908604FF02300724908604FF0010096
:10038000A1F1040108604FF0AA006F4908604FF026
:100390005500086000BF6D48006810F4806FFAD007
:1003A00003206B4908604FF0AA005E49C1F8AC0019
:1003B0004FF05500644908606648674908604FF08F
:1003C00000005849C1F8C8010846D0F88800C0F3B9
:1003D0000160032868D15548006810F0030006D07A
:1003E000012823D002283FD003285CD100E000BFC1
:1003F00052480068C0F30E0000F101004FEA4001CE
:10040000564801FB00F14748D0F88800C0F3074088
:1004100000F10100B1FBF0F141480068C0B200F109
:100420000100B1FBF0F04E4908603CE04348006831
:10043000C0F30E0000F101004FEA4001494801FB02
:1004400000F13848D0F88800C0F3074000F10100FF
:10045000B1FBF0F132480068C0B200F10100B1FB1D
:10046000F0F03F4908601EE034480068C0F30E0019
:1004700000F101004FEA40014FF4FA4001FB00F1A6
:100480002848D0F88800C0F3074000F10100B1FB14
:10049000F0F123480068C0B200F10100B1FBF0F0B8
:1004A0002F49086000BF2FE02048006810F00300CB
:1004B00006D0012810D0022819D0032823D100E04B
:1004C00000BF17480068C0B200F101002349B1FB2A
:1004D000F0F02349086016E011480068C0B200F14E
:1004E00001002049B1FBF0F01D4908600BE00C4809
:1004F0000068C0B200F101004FF4FA41B1FBF0F026
:100500001749086000BF00BF0648006820F470402B
:1005100040F480400349086070470000A0C10F40CC
:1005200004C10F4000C00F40ACC10F400CC10F40D0
:100530006300050084C00F408CC00F4088C00F408E
:1005400080C00F40A4C00F40ACC00F40A8C00F40F7
:10055000A0C00F40DE872804C4C00F4000093D0042
:1005600000000010001BB7000020C6490880C649E3
:100570000870C64908704FF00110C5490860002096
:10058000C4490860C4490860704710B5C3490020D9
:1005900000F012FB10BD10B5C1488088082801DDAD
:1005A000082401E0BE488488BD48224601688020B6
:1005B00000F033FB0446BA4800682044B84908609C
:1005C00008468088001B888010BD10B5B4480168BB
:1005D000002000F0F1FA0446B14800682044B04918
:1005E000086008468088001B888010BD10B5002276
:1005F0001146802000F011FB10BD10B5A949002064
:1006000000F0DAFA10BD10B50446082C6FD2DFE80E
:1006100004F06E04EBFE6E6EFDFCFFF7B6FF9F4923
:100620000978C80900F07FFA9C48C0889C498880F6
:100630009A480078C0F3411010B101287BD192E0B4
:10064000964840780C2877D2DFE800F0060D8A152E
:100650008A1D333A41555E8301F032F800B9BAE0A1
:10066000FFF799FF7DE0002001F08AF800B9B2E0C1
:10067000FFF7BCFF75E0012001F082F800B9AAE0A5
:10068000FFF7B4FF6DE000BF84480078C0F30400BA
:1006900030B98248807840F080007B49087001E0E2
:1006A000002001E000BF012000B994E0FFF79EFFA9
:1006B00057E000F0A9FF00B98DE0FFF76CFF50E0B4
:1006C000002000F058FA00207549888049E000BFFA
:1006D00072480078C0F3040018B96C48704908608B
:1006E00001E0002001E000BF012008B973E0C6E08E
:1006F000FFF751FF35E001F0CDF800B96BE0FFF7EF
:1007000075FFFFF70CFD2CE000BF64480078C0F3D4
:100710000400012814D15D48007870B15F48007969
:1007200061490978884208DA5C4800795F490844E1
:100730005B49086003E04DE012E0002004E001E0C6
:10074000002001E000BF012000B944E0FFF723FFD3
:1007500007E001F07BF900B93DE0FFF747FF00E05B
:1007600039E000BF3EE04D480078C0F3040020B1FE
:10077000012803D002282BD129E02CE0474800793A
:1007800020BB46484078FE280ED0FF281DD14348A4
:10079000408840B94148C08828B900F049FB10B1F1
:1007A000FFF724FF15E010E03C48408860B93B4863
:1007B000C088012808D100F048FB28B139483849E1
:1007C0000860FFF7E8FE04E000BF00BF03E002E0BE
:1007D00001E007E000BF802000F0CDF900203049A3
:1007E000888000BF00BF4AE02C480078C00923D1B0
:1007F0002B48808810B3FFF7E8FE29488088E8B9C5
:1008000026480078C0F3411002E034E02FE016E003
:1008100010B101280FD100E0DDE720480078C0F3D7
:10082000040020B1012803D0022803D101E0D2E75F
:10083000D1E7D0E7CFE7CEE7FFF7DFFE1FE01748AD
:100840000078C009012802D1FFF7A5FE0EE00E488E
:10085000007810F0800F09D00B48007800F07F007E
:10086000094908700846007800F083F807E0002086
:1008700000F08EF903E0802000F08AF900BF00BF8D
:1008800010BD00000400001006000010070000105A
:10089000080000100C0000101000001028000010CC
:1008A00020000010160000101400001015000010A9
:1008B00001460A07D00E11F0800F00D0401C70478F
:1008C0001021FF4A1160FF49C1F8100200BFFE4924
:1008D000096811F0100FFAD070471022F84B1A6017
:1008E000F84AC2F8100200BFF74A126812F0100F5F
:1008F000FAD01022F24B1A60F24AC2F8101200BF6E
:10090000F14A126812F0100FFAD0704710B5034682
:100910000C461020EA4908601846FFF7C9FF4FF45B
:10092000A06141EA0040E749C1F8100200BFE64873
:10093000006810F0100FFAD01020E1490860E1487B
:10094000C0F8104200BFE048006810F0100FFAD065
:1009500010BD01463020DA4A1060DA48C0F81012A3
:1009600000BFD948006810F0200FFAD0D7480068BF
:10097000704710B5044644F080004FF4807242EA9C
:100980000041D348FFF7A9FF44F080004FF4807284
:1009900042EA0041CE48FFF7A0FF10BD0020CD493C
:1009A00008604FF00800C749C1F84C024FF0010041
:1009B000C84908604FF00800C249C1F84C0200BFA6
:1009C000C148006810F4807FFAD04FF0FF30C24970
:1009D0000860BC49C1F83402B94908604FF00C0006
:1009E000B849C1F80402704700B5BC48406820F01F
:1009F0007050BA4948600846406840F0A0504860CE
:100A00000846C068B6490840B449C8600846C0688E
:100A1000B4490843B149C8600846006920F4402041
:100A200008610846006940F480200861AE4800680B
:100A300040F00040AD49C1F8C4004FF01A00AC4985
:100A4000086000BFAB48006800F01A001A28F9D10E
:100A500000BF18200121814040094FF0E02202EB45
:100A60008000C0F8001100BFFFF798FF0020FFF7DB
:100A700080FF00BD10B504460CB1012000E000204D
:100A80004FF4807242EA00419B48FFF726FF10BDF9
:100A90007047704700B59948008810F0020F03D0E6
:100AA00097499548FFF719FF00BD704710B50446F8
:100AB0000CB1012000E000204FF4807242EA0041B6
:100AC0009048FFF70AFF03208F49086000BF7E4867
:100AD000006810F4807FFAD04FF480707849086085
:100AE00010BD10B50446A078FFF7E2FE0346864825
:100AF00001684FF0010000FA03F041EA000171487B
:100B0000C0F8441273480360A0886E49C1F84C02D3
:100B100000BF6D48006810F4807FFAD04FF48070F9
:100B20006749086010BD704730B504462046FFF79E
:100B3000BFFE764941EA004589132846FFF7CDFEFE
:100B400030BD30B504462046FFF7B2FE6F4941EA9A
:100B500000456F492846FFF7C0FE30BD30B504465A
:100B60002046FFF7A5FE694941EA0045891328465A
:100B7000FFF7B3FE30BD30B504462046FFF798FEC0
:100B8000624941EA00455E492846FFF7A6FE30BDAE
:100B900030B504462046FFF78BFE5C4941EA00452C
:100BA00089132846FFF799FE30BD10B50446594910
:100BB0002046FFF7ABFE10BDF0B504460F4604F02B
:100BC0000F00012101EB80005349086000BF53482A
:100BD000056815F4006FFAD0C5F30905002606E094
:100BE0004F480068386007F1040706F10106E81C69
:100BF000B6EB900FF4D300204749086004F00F01D2
:100C000041F2482040FA01F010F0010F03D14149B0
:100C10002046FFF77BFE2846F0BDF0B504460D46A2
:100C2000164604F00F00022101EB80003A490860EB
:100C30002448C0F824624FF0000706E028683949CC
:100C4000086005F1040507F10107F01CB7EB900FF0
:100C5000F4D300203049086033492046FFF756FEA0
:100C60003046F0BD00B53148FFF72AFE3048FFF7A7
:100C700070FE03462E48FFF76CFE43EA0023184639
:100C800000BD2DE9F0471048046814F0080F5DD04E
:100C900008200B4908601848FFF712FE2548FFF7A7
:100CA00058FE054615F0100F03D0FFF777FEFFF74B
:100CB00025FA15F0080F48D015F0040F41D03BE09D
:100CC00008C2005000C0005000C2005014C20050C2
:100CD0000005D00048C2005038C2005000C0024099
:100CE000CFFFFFCF10000020C4C00F4000C00F4056
:100CF000F4CF0050F8CF00500005FE0004000010B3
:100D0000000101000005D80044C200500005400069
:100D1000000120000005F20028C2005020C200504F
:100D200018C200501CC200500005FA000005F50072
:100D30000002F5000002FE00FFF7AAFEFFF7E5F94A
:100D400003E0FFF7A6FEFFF7E5F94DE014F0040F0E
:100D500049D04FF000092548D0F8308200263CE009
:100D6000C84500D13BE00120B04010EA080F32D066
:100D70000120B04040EA090977080120B0401C4931
:100D8000086000BF1B48006810F0200FFAD01A4816
:100D9000056816F0010F15D156B915F0040F07D0EC
:100DA0001648006820B1154801680120884713E003
:100DB000124850F8270070B1104850F82710022050
:100DC000884708E00D4850F8270020B10B4850F83C
:100DD00027100320884700BF761C202EC0D300BFF9
:100DE00004200749086000BFBDE8F08700C000503C
:100DF00038C2005000C2005014C20050BC020000B3
:100E000008C2005010B504462046FFF7B4FE14F0A7
:100E1000800F05D004F00F014FF48030884001E0CE
:100E20000120A040FF4909680843FE49086010BD41
:100E300010B50320FFF7DBF90020FB490860FB49F0
:100E40000860FB490870012010BD0020F9490870B6
:100E50000120704710B5F8480068402801D94024A7
:100E600001E0F5480468F54800682044B0F5804F7B
:100E700006D9F2480068C0F580440420EC490870A7
:100E8000EF48EE4A1268811822468220FFF7C5FE1D
:100E9000EA4800682044E9490860E7480068001B08
:100EA000E5490860E1488068001BE0498860E24845
:100EB000006810B90320DE490870DD480078022878
:100EC00005D00120FFF793F90020D849087310BD21
:100ED00010B5DC48D54908600D228220FFF79DFE41
:100EE0000520D349087010BD10B5D4480068D64914
:100EF00009780844B0F5804F0AD9D04800684042CC
:100F0000D14908700520CA4908700220FFF77AFF0E
:100F1000002407E0CD48005DC84909682144C84A5B
:100F20005054641CC84800788442F3D3C348006816
:100F3000C54909780844C1490860BF480068C249EA
:100F40000978401ABC490860B8488068BE490978E9
:100F5000401AB6498860B848006818B1B4480078AB
:100F6000052807D10220FFF742F90020AF49087396
:100F7000FFF7AEFF10BD10B5B0480068B249097860
:100F80000844B0F5804F0AD9AC4800684042AE49E9
:100F900008700520A64908700220FFF733FF0024DF
:100FA0000DE0A64800682044A549085CA749095DF2
:100FB000884203D00020A649086004E0641CA248CF
:100FC00000788442EDD300BF9C4800689E490978B0
:100FD00008449A490860984800689B490978401A73
:100FE000954908609148806897490978401A8F4967
:100FF00088609148006818B18D480078052809D1AB
:101000009348006808B9012000E000208749087370
:10101000FFF75EFF10BD10B58E48407C01068D487D
:10102000807C41EA00418B48C07C41EA002189482C
:10103000007D41EA00046002804908608548C07B69
:101040002F280CD004DC282807D02A281ED105E040
:10105000A8280AD0AA2819D108E000BF00BF7D48FF
:10106000C17D807D41EA002410E000BF7948407DC9
:1010700001067848807D41EA00417648C07D41EA1A
:1010800000217448007E41EA000400BF00BF6002F6
:10109000694908606F48806830B901206349087366
:1010A000FFF716FF002010BD6A4880686249096892
:1010B000884212D06748007B10F0800F03D0822056
:1010C000FFF7A0FE02E00220FFF79CFE0120574937
:1010D0000873FFF7FDFE0020E5E70120E3E710B508
:1010E0005C48806830B9022050490873FFF7F0FE71
:1010F000002010BD5748007B10F0800F09D102205E
:10110000FFF780FE022049490873FFF7E1FE002047
:10111000EFE70120EDE710B54E4880684A490978AD
:10112000884207D84B4880684749087003204049E7
:10113000087002E004203E490870434802784349A1
:101140008220FFF76AFD394880683F490978401AD4
:10115000364988600020087310BD10B53D4880688E
:1011600058B13C48007B10F0800F03D08220FFF77D
:1011700049FE02E00220FFF745FE00202B490873DC
:10118000FFF7A6FE10BD10B5FFF7A9FF00B910BD0F
:1011900070202E49087000204870022088700020BE
:1011A000C8700871487188710A20C87100200872DF
:1011B00048728872C872302008730120487300207A
:1011C0008873C8730874487412201F490870FFF7A9
:1011D000A2FFDCE710B5FFF782FF00B910BD0020C9
:1011E0001A49087080204870002088700120C8705B
:1011F000202008718020487100208871C87150201B
:1012000008726F204872772088726520C872722039
:10121000087341204873562088735220C8734C20AD
:10122000087419E00C00001010000010C3400010FA
:101230003C000010160000103800001034000010B0
:1012400064000010555342533D00001064400010EC
:1012500030000010A44000105020487443208874CF
:101260003120C8743720087578204875887520208B
:10127000C8754420087669204876732088766B20EC
:10128000C8762020087748778877C877312081F89A
:1012900020002E2081F82100302081F8220020201B
:1012A00081F823002420D0490870FFF734FF95E728
:1012B00010B5FFF714FF00B910BD0320CB4908702B
:1012C000002048708870C8700420C7490870FFF774
:1012D00022FFF1E710B5FFF702FF00B910BD0020B3
:1012E000C24908700620487000208870C8700871D4
:1012F00048718871C8710820BB490870FFF70BFF5F
:10130000ECE710B5FFF7EBFE00B910BD0020B749C0
:101310000870487088701F20C870002008714871DC
:10132000022088710020C8710820AF490870FFF7BB
:10133000F2FEEAE710B5FFF7D2FE00B910BD0020BB
:10134000AA490870487088700820C8700020087189
:10135000487188712020C8710220087200204872EC
:10136000022088720020C8720C209F490870FFF785
:10137000D2FEE3E710B5002404E09C48005D9C49E0
:101380000855641C984800788442F6D39648007843
:101390001F2873D19648006896498842F9D194482D
:1013A0004068954948609248806888609048407BD2
:1013B00038B98F48807B012803DB8D48807B10285B
:1013C00006DD00BF01208C490873FFF781FDB2E004
:1013D0008748C07B232839D011DC15282ED007DCA4
:1013E00000B3032821D0042822D0122874D120E091
:1013F0001A2824D01B281FD01E28F7D11DE05528FD
:1014000020D008DC252824D0282825D02A283FD021
:101410002F2879D155E05A2815D0A8281DD0AA2800
:1014200072D136E0FFF799FE6FE0FFF7ACFE6CE09B
:10143000C8E7FFF7CFFE68E0C4E7C3E7C2E7FFF7FE
:1014400037FF62E0BEE7FFF745FF5EE0FFF772FFA0
:101450005BE0FFF756FF58E000BFFFF7DCFDB0B1DF
:101460006348007B10F0800F09D00120FEF7B3FE27
:10147000022062490870FFF7EDFC08E046E0022018
:10148000FFF7C0FC02205C490873FFF721FD3CE038
:1014900000BFFFF7C0FD98B15548007B10F0800FEA
:1014A00006D10220FEF797FE01205449087007E09C
:1014B0008220FFF7A7FC02204F490873FFF708FDC1
:1014C00023E04B48007C10F0020F06D100204A496F
:1014D0000873FFF7FDFC18E016E0FFF79CFD90B1E4
:1014E0004348007B10F0800F05D10120434908706C
:1014F0004349086007E08220FFF784FC02203E4950
:101500000873FFF7E5FC00E05CE714E08220FFF7DA
:1015100079FC3C48006840F480203A490860022089
:10152000FFF770FC3748006840F004003549086058
:1015300006203249087010BD10B5304800780228E6
:1015400006D0032811D0042812D005281AD115E09E
:101550002748C07B282802D0A82804D100E000BF7B
:10156000FFF778FC00BF00BF0CE0FFF7B1FC09E01B
:101570008220FFF747FCFFF7ABFC03E000201F4988
:10158000087000BF00BF10BD10B518490220FFF75A
:1015900013FB154908701948007820B1012805D0BF
:1015A000052816D114E0FFF7E5FE1BE01048C07BCC
:1015B0002A2804D02F2806D0AA2807D100E000BF8F
:1015C000FFF792FC02E0FFF7D6FC00BF00BF09E086
:1015D00008E00220FFF716FC022007490873FFF716
:1015E00077FC00BF00BF10BD3D000010644000103C
:1015F000A440001055534243C34000103C0000106B
:10160000300000101000001010B528480078C0F31A
:10161000040010B101283DD139E02448C0780128E8
:1016200004D0022807D003282DD118E02048214CEF
:101630002060122329E02049002204E0087808B144
:1016400048880144521C194880789042F6D10878A5
:1016500008B9002010BD174801604B8815E01749F4
:10166000002204E0087808B108780144521C0F48B1
:1016700080789042F6D1087808B90020EAE70D4852
:1016800001600B7801E00020E4E700BF04E000BF48
:101690000020DFE70020DDE700BF06488088984291
:1016A00001D9044CA3800120D4E7000028000010D9
:1016B000801B000020000010921B0000B31B0000E4
:1016C00027480078C0F3040020B1012806D0022882
:1016D00041D116E02348244B18603EE023480078AF
:1016E00060B11F480079224B1B78984206DA00202F
:1016F000204B188018461C4B186001E000207047F2
:101700002BE01748007900F08F0111F0800F05D011
:1017100001F00F034FF48030984001E00120884031
:1017200002461248007810B911F00F0F10D112487C
:10173000006810420CD011480068104201D001200E
:1017400000E000200B4B18801846074B186001E0A2
:101750000020D4E701E00020D1E700BF0120CEE760
:1017600028000010040000102000001007000010E6
:101770001400001016000010080000100C000010EB
:1017800070B504463B480078C0F3040020B101283E
:101790001DD0022869D11CE036484088012813D1A9
:1017A00044B1FFF782F93448008840F00200324922
:1017B00008800BE00020FFF778F92F48008820F020
:1017C00002002D49088001E0002070BD4FE000209C
:1017D000FBE72848007900F08F0515F0800F05D051
:1017E00005F00F014FF48030884001E00120A8404F
:1017F000064622480078002834D015F00F0F31D06B
:101800001F48006830422DD01A48408840BB44B180
:101810002846FFF7B0F91B480068304319490860B3
:1018200022E019480068304201D00120CDE7284667
:10183000FFF7AEF9822D0DD112480068304209D071
:10184000124800681249884204D10D220F498220B3
:10185000FFF7E3F90B480068B0430A49086003E06A
:101860000020B2E70020B0E701E00020ADE700BFB4
:101870000120AAE728000010040000100700001053
:10188000080000100C00001010000010C3400010F1
:10189000555342532DE9F041002763480078C0F3C7
:1018A000040000287ED16048807800287BD05F4CFF
:1018B0007EE06078022804D0042851D0052870D139
:1018C00050E0607958498978884245D156488078F7
:1018D00057490870207957490870002503E0002017
:1018E000554948556D1C002DF9D0012514E0012003
:1018F000A84052490968084202D02846FFF721F95A
:101900004FF48030A8404D490968084203D045F0A3
:101910008000FFF716F96D1C102DE8D34FF0011071
:101920004649086000204649086046490860012091
:10193000FFF7BCF8E07910F0400F06D0424800886D
:1019400040F001004049088009E03F48008820F04D
:1019500001003D49088002E06088044428E020E05E
:10196000E7781EE0E7B9A07800F08F0515F0800F4A
:1019700005D005F00F014FF48030884001E00120D0
:10198000A84006462D48006830432C490860204690
:10199000FFF7A7F82846FFF7C7F82846FFF7DEF855
:1019A00000BF01E03AE008E000BF2078044400BF37
:1019B000207800287FF47DAF26E000201C490870C5
:1019C000012514E00120A8401C490968084202D002
:1019D0002846FFF7B6F84FF48030A8401749096849
:1019E000084203D045F08000FFF7ABF86D1C102DC6
:1019F000E8D34FF001101149086000201049086039
:101A000010490860FFF752F80748807808490978BC
:101A1000884202D00020BDE8F08101E00020FAE712
:101A200000BF0120F7E7000028000010921B000013
:101A3000070000101400001015000010080000102E
:101A40000C00001010000010040000102DE9F05FE1
:101A5000002500260027A84643480078C0F304006C
:101A600001287BD14148007810B90020BDE8F09FE3
:101A70004FF0000B3E4C6CE06078022804D0042844
:101A80000BD0052861D11BE060793849097888427C
:101A900002D0608804445CE057E0A578E6784FF017
:101AA000000831480079A84209D12F488078B04217
:101AB00005D14FF0010B2F48475D01464E5544E0DC
:101AC00029480079A8423FD1A07800F08F0919F089
:101AD000800F05D009F00F014FF48030884002E0FC
:101AE000012000FA09F082461F488078B04217D1E1
:101AF0002148006840EA0A001F4908601F48006842
:101B000020EA0A001D4908602046FEF7EAFF484621
:101B1000FFF70AF84846FFF721F848EA0A0813E0F9
:101B2000BE4211D118EA0A0F0ED11348006820EA0C
:101B30000A00114908601148006820EA0A000F49AC
:101B400008604846FEF7FDFF00BF00BF2078044450
:101B500000BF207800288FD102E0FFE7002085E752
:101B600000BF584682E70000280000100700001060
:101B7000921B000015000010080000100C0000105F
:101B8000120100020000000851C2032200010102FC
:101B90000301090220000101008032090400000253
:101BA00008065004070582024000000705020240B3
:101BB000000000040309041C034B00650069006C6D
:101BC00000200053006F006600740077006100720F
:101BD00000650028034B00650069006C0020004D83
:101BE0000043004200310037003000300020004D3B
:101BF0000065006D006F00720079001A033000303C
:101C00000030003100410030003000300030003042
:101C100000300030000E034D0065006D006F007253
:101C2000007900EB3C904D53444F53352E30000269
:101C30000101000110002000F80200010001000075
:101C400000000000000000000029741902274C5019
:101C500043323437382055534246415431322020E4
:101C60002033C98ED1BCF07B8ED9B800208EC0FC49
:101C7000BD007C384E247D248BC199E83C01721C48
:101C800083EB3A66A11C7C26663B07268A57FC75C7
:101C90000680CA0288560280C31073EB33C98A4695
:101CA0001098F7661603461C13561E03460E13D1F2
:101CB0008B7611608946FC8956FEB82000F7E68BCA
:101CC0005E0B03C348F7F30146FC114EFE61BF00F3
:101CD00000E8E600723926382D741760B10BBEA1FA
:101CE0007DF3A66174324E740983C7203BFB72E614
:101CF000EBDCA0FB7DB47D8BF0AC9840740C487499
:101D000013B40EBB0700CD10EBEFA0FD7DEBE6A0FA
:101D1000FC7DEBE1CD16CD19268B551A52B001BBD7
:101D20000000E83B0072E85B8A5624BE0B7C8BFC0B
:101D3000C746F03D7DC746F4297D8CD9894EF2898E
:101D40004EF6C606967DCBEA030000200FB6C866A5
:101D50008B46F86603461C668BD066C1EA10EB5EC4
:101D60000FB6C84A4A8A460D32E4F7E20346FC132E
:101D700056FEEB4A525006536A016A10918B461880
:101D8000969233D2F7F691F7F64287CAF7761A8A17
:101D9000F28AE8C0CC020ACCB80102807E020E753D
:101DA00004B4428BF48A5624CD136161720B4075E2
:101DB0000142035E0B497506F8C341BB0000606633
:101DC0006A00EBB04E544C44522020202020200DBD
:101DD0000A52656D6F7665206469736B73206F724C
:101DE000206F74686572206D656469612EFF0D0A4D
:101DF0004469736B206572726F72FF0D0A507265D1
:101E0000737320616E79206B657920746F20726521
:101E100073746172740D0A00000000000000ACCB06
:101E2000D855AAF8FFFFFFFFFFFF0F0000000000DA
:101E300000000000000000000000000000000000A2
:101E40000000000000000000000000000000000092
:101E50000000000000000000000000000000000082
:101E60000000000000000000000000000000000072
:102220000000004C50433137787820555342280045
:10223000000000000000000000000000000000009E
:10224000000000524541444D45202054585421007F
:102250000000002100BB320000DC83BB3202005DC5
:10226000000000000000000000000000000000006E
:10227000000000000000000000000000000000005E
:10228000000000000000000000000000000000004E
:10229000000000000000000000000000000000003E
:1022A000000000000000000000000000000000002E
:1022B000000000000000000000000000000000001E
:1022C000000000000000000000000000000000000E
:1022D00000000000000000000000000000000000FE
:1022E00000000000000000000000000000000000EE
:1022F00000000000000000000000000000000000DE
:1023000000000000000000000000000000000000CD
:1023100000000000000000000000000000000000BD
:1023200000000000000000000000000000000000AD
:10233000000000000000000000000000000000009D
:10234000000000000000000000000000000000008D
:10235000000000000000000000000000000000007D
:10236000000000000000000000000000000000006D
:10237000000000000000000000000000000000005D
:10238000000000000000000000000000000000004D
:10239000000000000000000000000000000000003D
:1023A000000000000000000000000000000000002D
:1023B000000000000000000000000000000000001D
:1023C000000000000000000000000000000000000D
:1023D00000000000000000000000000000000000FD
:1023E00000000000000000000000000000000000ED
:1023F00000000000000000000000000000000000DD
:1024000000000000000000000000000000000000CC
:1024100000000000000000000000000000000000BC
:10242000000000546869732069732061205553428D
:10243000204D656D6F72792044657669636520640F
:10244000656D6F6E7374726174696F6E20666F7202
:102450000D0A746865204B65696C204D4342313725
:10246000303020426F617264207769746820506850
:10247000696C697073204C5043313778782E0D0A9F
:10248000000000000000000000000000000000004C
:10249000000000000000000000000000000000003C
:1024A000000000000000000000000000000000002C
:1024B000000000000000000000000000000000001C
:102C200000000000442C00000000001064000000C0
:102C30009C020000A82C0000640000106C42000000
:102C4000AC02000000093D00000000000000000090
:102C50000000000000000000000000000000000074
:102C60000000000000000000000000000000000064
:102C70000000000000000000000000000000000054
:102C80000000000000000000000000100000002014
:102C90000000008004000000080000001000000098
:082CA0002000000040000000CC
:04000005000000CD2A
:00000001FF
