:020000040000FA
:1000000090020010650100006D0100006F0100000A
:100010007101000073010000750100000000000084
:100020000000000000000000000000007701000058
:1000300079010000000000007B0100007D0100004C
:100040007F0100007F0100007F0100007F010000B0
:100050007F0100007F0100007F0100007F010000A0
:100060007F0100007F0100007F0100007F01000090
:100070007F0100007F0100007F0100007F01000080
:100080007F0100007F0100007F0100007F01000070
:100090007F0100007F0100007F0100007F01000060
:1000A0007F0100007F010000A10100009905000010
:1000B0007F0100007F0100007F0100007F01000040
:1000C0007F01000000F002F800F03CF80AA090E880
:1000D000000C82448344AAF10107DA4501D100F003
:1000E00031F8AFF2090EBAE80F0013F0010F18BF94
:1000F000FB1A43F00103184774070000940700003F
:10010000103A24BF78C878C1FAD8520724BF30C843
:1001100030C144BF04680C60704700000023002415
:1001200000250026103A28BF78C1FBD8520728BF07
:1001300030C148BF0B6070471FB500F08FFB1FBD7B
:1001400010B510BD00F04BFB1146FFF7F5FF00F0B6
:10015000B1FA00F069FB03B4FFF7F2FF03BC00F053
:1001600073FB00000948804709480047FEE7FEE7A7
:10017000FEE7FEE7FEE7FEE7FEE7FEE7FEE7FEE757
:1001800004480549034A054B70470000410400003C
:10019000C5000000900000109002001090000010B8
:1001A00046494868B0B146490968491C444A11604B
:1001B000424989680143414A916010F0010F03D020
:1001C0000121404A116005E010F0020F02D0012128
:1001D0003D4A11603949C86848B13C490968491C21
:1001E0003A4A1160354909690143344A116170473F
:1001F0000246002A2DD10120304B986001290AD1F6
:100200003348344B186034482C4BC3F8040133484E
:10021000334B18604FE002290BD12F48001D2D4BA6
:1002200018603048254BC3F804012F482C4B186048
:1002300041E003290BD12848264B186000F1040047
:100240001E4BC3F804012948254B186033E00020F9
:100250007047012A2DD10220184B986001290AD13C
:100260001B48234B18601C48144BC3F824011B483F
:10027000204B18601FE002290BD11748001D1C4BB2
:10028000186018480D4BC3F824011748194B186023
:1002900011E003290BD11048154B186000F1040040
:1002A000064BC3F824011148124B186003E00020EC
:1002B000CEE70020CCE70120CAE700000040005054
:1002C000040000100C0000101000001008000010C6
:1002D000000008200041005008800A40000200840D
:1002E0000C410050001008200002008800420280EB
:1002F000204100502C41005070470000FFFFFFFFDD
:1003000091480068C0F30160032868D18F480068F5
:1003100010F0030006D0012823D002283FD0032884
:100320005CD100E000BF88480068C0F30E0000F117
:1003300001004FEA4001864801FB00F18548D0F8F2
:100340008800C0F3074000F10100B1FBF0F18248E2
:100350000068C0B200F10100B1FBF0F07F49086015
:100360003CE079480068C0F30E0000F101004FEA5C
:1003700040017B4801FB00F17648D0F88800C0F3CB
:10038000074000F10100B1FBF0F173480068C0B212
:1003900000F10100B1FBF0F0704908601EE06A480E
:1003A0000068C0F30E0000F101004FEA40014FF475
:1003B000FA4001FB00F16748D0F88800C0F307401D
:1003C00000F10100B1FBF0F163480068C0B200F138
:1003D0000100B1FBF0F06149086000BF2FE05B480D
:1003E000006810F0030006D0012810D0022819D0B0
:1003F000032823D100E000BF57480068C0B200F1D5
:1004000001005349B1FBF0F05449086016E052482E
:100410000068C0B200F101005149B1FBF0F04F4952
:1004200008600BE04C480068C0B200F101004FF4D6
:10043000FA41B1FBF0F04949086000BF00BF7047C6
:1004400020204849086000BF4648006810F0400F6F
:10045000FAD00320404908604FF001003D49C1F83F
:100460000C014148414908604FF0AA00404908602A
:100470004FF0550008604FF001003E4908604FF012
:10048000AA003B4908604FF055003249C1F88C0082
:1004900000BF2D48006810F0806FFAD00320354966
:1004A00008604FF0AA002B49C1F88C004FF05500AE
:1004B0002F49086000BF2448006810F0407FFAD040
:1004C00023202D4908604FF0AA002249C1F8AC0052
:1004D0004FF05500294908604FF001002849086095
:1004E0004FF0AA00254908604FF055001949C1F89E
:1004F000AC0000BF2348006810F4806FFAD00320DE
:100500001F4908604FF0AA001249C1F8AC004FF033
:1005100055001A49086000BF1A48006810F4407F6F
:10052000FAD00020184908600A49C1F8AC01174800
:10053000174908604FF000001649086043F23A007E
:10054000044908607047000088C00F400CC10F408C
:1005500000093D0000C00F4004C10F400000001022
:10056000001BB700A0C10F406300050084C00F400E
:100570008CC00F4080C00F40A4C00F40ACC00F40E3
:10058000A0C00F40A8C00F40A8C10F40DE872804BC
:10059000C4C00F40C8C10F4010B500213C480069DD
:1005A00010F0010F2BD03A480069C0F3072131B396
:1005B0003848006818BB1FE037480068B0F5007F76
:1005C0000ED13348406840F01800314A5060104660
:1005D000C06920F00100D06101202E4A10600DE0BA
:1005E0002B4AD268D3B22C4A1068421C2A4C226093
:1005F0002A4A12681354491E0029DDD100BF10BDDC
:10060000234A1068516820F01802214B1A6021F02B
:1006100018025A6070471E4A106848F22002904340
:100620001B4A516821F4004140F01802184B1A602F
:1006300041F018025A60704700B51948006840F050
:1006400000601849C1F8C40017480068174900EA5B
:1006500001001549086008460068154940EA010094
:100660001149086040F24120094908624862FFF7D9
:10067000D2FF00BF1B210120884049094FF0E02232
:1006800002EB8101C1F8000100BF012000BD0000A4
:1006900000800A40240000101C0000101800001008
:1006A000C4C00F4000C00F4000C00240FF00F0FF78
:1006B0000055050010B5FFF7C3FE002407E03A49D6
:1006C00009680C550020394909680855641CB4F5BF
:1006D000007FF4D3FFF7B0FF08B900BFFEE734484E
:1006E000006840F000503349C1F8C4004FF00300E7
:1006F0003149886008614FF00100086300BF2E484F
:10070000006B10F0010FFAD001210020FFF770FDFF
:100710002A4800682A4940EA01002749C1F8100127
:100720004FF002014FF00100FFF762FD254800681D
:1007300049F20D0140EA01001F49C1F8300100BF34
:100740004FF01A004FF0010101FA00F14FEA50108A
:100750004FF0E02202EB8000C0F8001100BFFFF76D
:100760004FFF40F60100184988611848486100BFF2
:10077000174800680028FBD0164800680028F7D00A
:1007800001240BE009480068015D601E064A1268FA
:10079000105C814201D000BFFEE7641CB4F5007F0D
:1007A000F0D3002010BD000014000010180000104D
:1007B000C4C00F4000C00F40004000501041005026
:1007C000418901003041005000800A4002000100D0
:1007D0000C000010100000107047704770477546FD
:1007E00000F028F8AE4605006946534620F00700A1
:1007F000854618B020B5FFF7C3FCBDE820404FF098
:1008000000064FF000074FF000084FF0000B21F0FA
:100810000701AC46ACE8C009ACE8C009ACE8C009C7
:10082000ACE8C0098D4670470446AFF3008020460F
:10083000FFF791FC004870472C00001001487047FA
:10084000704700003000001003494FF01800ABBEA5
:1008500070470000A5FAFFFF2600020010B5FFF761
:10086000EDFF4FF00001016010BD00008C0800009A
:10087000000000102C00000000010000B80800007B
:100880002C000010640200001C01000000E1F505CE
:100890000000000000000000000000000000000058
:1008A00000000820001008200000000000000000E8
:0808B000000000000000000040
:04000005000000C532
:00000001FF
