:020000040000FA
:10000000C0020010650100006D0100006F010000DA
:100010007101000073010000750100000000000084
:100020000000000000000000000000007701000058
:1000300079010000000000007B0100007D0100004C
:100040007F0100007F0100007F0100007F010000B0
:100050007F0100007F0100007F0100007F010000A0
:100060007F0100007F0100007F0100007F01000090
:100070007F0100007F0100007F0100007F01000080
:100080007F0100007F0100007F0100007F01000070
:100090007F0100007F0100007F0100007F01000060
:1000A0007F0100007F0100007F0100007F01000050
:1000B0007F0100007F0100007F0100007F01000040
:1000C0007F01000000F002F800F03CF80AA090E880
:1000D000000C82448344AAF10107DA4501D100F003
:1000E00031F8AFF2090EBAE80F0013F0010F18BF94
:1000F000FB1A43F001031847780100009801000043
:10010000103A24BF78C878C1FAD8520724BF30C843
:1001100030C144BF04680C60704700000023002415
:1001200000250026103A28BF78C1FBD8520728BF07
:1001300030C148BF0B6070471FB500F092F81FBD7B
:1001400010B510BD00F04DF81146FFF7F5FF00F0B7
:100150002CF800F06BF803B4FFF7F2FF03BC00F0DB
:1001600075F800000948804709480047FEE7FEE7A8
:10017000FEE7FEE7FEE7FEE7FEE7FEE7FEE7FEE757
:1001800004480549034A054B70470000410400003C
:10019000C5000000C0000010C0020010C000001028
:1001A0004FF400100A494860704710B500F048F954
:1001B000FFF7F6FF0BE0002407E0064830F81400D4
:1001C000800105490860601CC4B22D2CF5DBF2E704
:1001D00000C002400400001000C008407047704793
:1001E0007047754600F028F8AE460500694653464C
:1001F00020F00700854618B020B5FFF7C1FFBDE825
:1002000020404FF000064FF000074FF000084FF07D
:10021000000B21F00701AC46ACE8C009ACE8C0090E
:10022000ACE8C009ACE8C0098D4670470446AFF39E
:1002300000802046FFF78FFF0048704760000010E5
:1002400001487047704700006400001003494FF0F8
:100250001800ABBE70470000090000002600020035
:10026000704710B5FFF7ECFF4FF00001016010BDC3
:100270009805000000000010600000000001000070
:10028000F805000060000010600200001C01000082
:10029000000000000000000000000000000000005E
:1002A000000000000000000000000000000000004E
:1002B000000000000000000000000000000000003E
:1002C000000000000000000000000000000000002E
:1002D000000000000000000000000000000000001E
:1002E000000000000000000000000000000000000E
:1002F000000000000000000000000000FFFFFFFF02
:1003000091480068C0F30160032868D18F480068F5
:1003100010F0030006D0012823D002283FD0032884
:100320005CD100E000BF88480068C0F30E0000F117
:1003300001004FEA4001864801FB00F18548D0F8F2
:100340008800C0F3074000F10100B1FBF0F18248E2
:100350000068C0B200F10100B1FBF0F07F49086015
:100360003CE079480068C0F30E0000F101004FEA5C
:1003700040017B4801FB00F17648D0F88800C0F3CB
:10038000074000F10100B1FBF0F173480068C0B212
:1003900000F10100B1FBF0F0704908601EE06A480E
:1003A0000068C0F30E0000F101004FEA40014FF475
:1003B000FA4001FB00F16748D0F88800C0F307401D
:1003C00000F10100B1FBF0F163480068C0B200F138
:1003D0000100B1FBF0F06149086000BF2FE05B480D
:1003E000006810F0030006D0012810D0022819D0B0
:1003F000032823D100E000BF57480068C0B200F1D5
:1004000001005349B1FBF0F05449086016E052482E
:100410000068C0B200F101005149B1FBF0F04F4952
:1004200008600BE04C480068C0B200F101004FF4D6
:10043000FA41B1FBF0F04949086000BF00BF7047C6
:1004400020204849086000BF4648006810F0400F6F
:10045000FAD00320404908604FF001003D49C1F83F
:100460000C014148414908604FF0AA00404908602A
:100470004FF0550008604FF001003E4908604FF012
:10048000AA003B4908604FF055003249C1F88C0082
:1004900000BF2D48006810F0806FFAD00320354966
:1004A00008604FF0AA002B49C1F88C004FF05500AE
:1004B0002F49086000BF2448006810F0407FFAD040
:1004C00023202D4908604FF0AA002249C1F8AC0052
:1004D0004FF05500294908604FF001002849086095
:1004E0004FF0AA00254908604FF055001949C1F89E
:1004F000AC0000BF2348006810F4806FFAD00320DE
:100500001F4908604FF0AA001249C1F8AC004FF033
:1005100055001A49086000BF1A48006810F4407F6F
:10052000FAD00020184908600A49C1F8AC01174800
:10053000174908604FF000001649086043F23A007E
:10054000044908607047000088C00F400CC10F408C
:1005500000093D0000C00F4004C10F400000001022
:10056000001BB700A0C10F406300050084C00F400E
:100570008CC00F4080C00F40A4C00F40ACC00F40E3
:10058000A0C00F40A8C00F40A8C10F40DE872804BC
:10059000C4C00F40C8C10F4000E1F5059A01D30166
:1005A0000B0240027302A102CA02ED020A031F03FA
:1005B0002D033303310327031503FC02DC02B602CB
:1005C0008A025A022602EF01B6017D0144010E01A2
:1005D000D900A9007D00570037001E000C00020062
:1005E0000000060014002900460069009200C100C6
:0805F000F30029016101000084
:04000005000000C532
:00000001FF
