:020000040000FA
:1000000058020010E1000000E5000000E7000000D9
:10001000E9000000EB000000ED000000000000001F
:10002000000000000000000000000000EF000000E1
:10003000F100000000000000F3000000F5000000E7
:10004000F7000000F7000000F7000000F7000000D4
:10005000F7000000F7000000F7000000F7000000C4
:10006000F7000000F7000000F7000000F7000000B4
:10007000F7000000F7000000F7000000F7000000A4
:10008000F7000000F7000000F7000000F700000094
:10009000F7000000F7000000F7000000F700000084
:1000A000DB0C0000F7000000F7000000F700000084
:1000B000F7000000F7000000F7000000F700000064
:1000C000F7000000F7000000F7000000DFF80CD098
:1000D00000F09CF800480047F70E0000580200109E
:1000E00005480047FEE7FEE7FEE7FEE7FEE7FEE71E
:1000F000FEE7FEE7FEE7FEE7CD00000010B500F0EA
:1001000033FA10BD10B51348007830B100F0A2FEEC
:1001100001221149812000F0ACFD10BD10B504464C
:10012000032C07D100F096FE01220B49812000F03C
:10013000A0FD00BF00BF10BD7047704770477047FB
:1001400070477047704770477047704770477047F7
:1001500070477047070000105400001010B5254884
:10016000C078012804D0022809D003280BD108E068
:1001700000F070FE204800782049087003E000205D
:1001800010BD0020FCE700BF0120F9E710B51948B9
:10019000C078012804D0022804D003280BD108E03D
:1001A000002010BD154800781549087000F086FE43
:1001B00001E00020F5E700BF0120F2E70D4880785C
:1001C0001049085C0D490870012070470948C07843
:1001D000084989780B4A5054012070470A48007832
:1001E0000649087001207047024880780649087067
:1001F0000120704728000010540000101600001065
:10020000550000103100001030000010064C074D62
:1002100006E0E06840F0010394E8070098471034D6
:10022000AC42F6D3FFF756FF5815000078150000D2
:1002300027480078C0F3040020B1012806D0022826
:1002400041D116E02348244B18603EE02348007853
:1002500060B11F480079224B1B78984206DA0020D3
:10026000204B188018461C4B186001E00020704796
:100270002BE01748007900F08F0111F0800F05D0B6
:1002800001F00F034FF48030984001E001208840D6
:1002900002461248007810B911F00F0F10D1124821
:1002A000006810420CD011480068104201D00120B3
:1002B00000E000200B4B18801846074B186001E047
:1002C0000020D4E701E00020D1E700BF0120CEE705
:1002D000280000100400001020000010070000108B
:1002E0001400001016000010080000100C00001090
:1002F000704700000000000000000000FFFFFFFF4B
:1003000020208649086000BF8448006810F0400F34
:10031000FAD00320824908604FF000008149C1F8FB
:10032000A801814908604FF00100804908608048B9
:10033000804908604FF00100A1F1040108604FF00E
:10034000AA007D4908604FF055007649C1F88C003D
:1003500000BF7A48006810F0806FFAD00320784917
:1003600008604FF0AA006F49C1F88C004FF05500AB
:10037000714908604FF02300724908604FF0010096
:10038000A1F1040108604FF0AA006F4908604FF026
:100390005500086000BF6D48006810F4806FFAD007
:1003A00003206B4908604FF0AA005E49C1F8AC0019
:1003B0004FF05500644908606648674908604FF08F
:1003C00000005849C1F8C8010846D0F88800C0F3B9
:1003D0000160032868D15548006810F0030006D07A
:1003E000012823D002283FD003285CD100E000BFC1
:1003F00052480068C0F30E0000F101004FEA4001CE
:10040000564801FB00F14748D0F88800C0F3074088
:1004100000F10100B1FBF0F141480068C0B200F109
:100420000100B1FBF0F04E4908603CE04348006831
:10043000C0F30E0000F101004FEA4001494801FB02
:1004400000F13848D0F88800C0F3074000F10100FF
:10045000B1FBF0F132480068C0B200F10100B1FB1D
:10046000F0F03F4908601EE034480068C0F30E0019
:1004700000F101004FEA40014FF4FA4001FB00F1A6
:100480002848D0F88800C0F3074000F10100B1FB14
:10049000F0F123480068C0B200F10100B1FBF0F0B8
:1004A0002F49086000BF2FE02048006810F00300CB
:1004B00006D0012810D0022819D0032823D100E04B
:1004C00000BF17480068C0B200F101002349B1FB2A
:1004D000F0F02349086016E011480068C0B200F14E
:1004E00001002049B1FBF0F01D4908600BE00C4809
:1004F0000068C0B200F101004FF4FA41B1FBF0F026
:100500001749086000BF00BF0648006820F470402B
:1005100040F480400349086070470000A0C10F40CC
:1005200004C10F4000C00F40ACC10F400CC10F40D0
:100530006300050084C00F408CC00F4088C00F408E
:1005400080C00F40A4C00F40ACC00F40A8C00F40F7
:10055000A0C00F40DE872804C4C00F4000093D0042
:1005600000000010001BB7000020DC490880DC49B7
:100570000870DC4908704FF00110DB49086000206A
:10058000DA490860DA490860704710B5D949002097
:1005900000F03EFB10BD10B5D7488088082801DD6B
:1005A000082401E0D4488488D3482246016880208A
:1005B00000F05FFB0446D04800682044CE49086044
:1005C00008468088001B888010BD10B5CA480168A5
:1005D000002000F01DFB0446C74800682044C649BF
:1005E000086008468088001B888010BD10B5002276
:1005F0001146802000F03DFB10BD10B5BF49002022
:1006000000F006FB10BD10B50446082C6FD2DFE8E1
:1006100004F06E04F0EF6E6EEEEDFFF7B6FFB54935
:100620000978C80900F0ABFAB248C088B24988809E
:10063000B0480078C0F3411010B101287BD192E09E
:10064000AC4840780C2877D2DFE800F0060D8A1518
:100650008A1D333A41555E83FFF7EAFD00B9D7E0C2
:10066000FFF799FF7DE0002000F0FCFC00B9CFE02F
:10067000FFF7BCFF75E0012000F0F4FC00B9C7E013
:10068000FFF7B4FF6DE000BF9A480078C0F30400A4
:1006900030B99848807840F080009149087001E0B6
:1006A000002001E000BF012000B9B1E0FFF79EFF8C
:1006B00057E000F055FC00B9AAE0FFF76CFF50E0EE
:1006C000002000F084FA00208B49888049E000BFB8
:1006D00088480078C0F3040018B982488649086049
:1006E00001E0002001E000BF012008B990E0F2E045
:1006F000FFF751FF35E000F02BFD00B988E0FFF770
:1007000075FFFFF7FFFC2CE000BF7A480078C0F3CC
:100710000400012814D17348007870B1754800793D
:1007200077490978884208DA72480079754908449F
:100730007149086003E06AE012E0002004E001E093
:10074000002001E000BF012000B961E0FFF723FFB6
:1007500007E000F0D9FD00B95AE0FFF747FF00E0DD
:1007600056E000BF5BE063480078C0F3040020B1AE
:10077000012803D0022848D146E049E05D480079CD
:10078000002840D15B4840780C283BD2DFE800F0DD
:100790003A0614253A3A3A3A3A101E33FFF7DEFC8D
:1007A00028B1564854490860FFF7F5FE2EE029E0CD
:1007B00052485149086029E0FFF700FD28B14F4831
:1007C0004D490860FFF7E7FE20E01BE0FFF7FEFC65
:1007D00010B1FFF70BFF19E014E0FFF7FFFC48B181
:1007E000464845490860FFF7D6FE0FE06FE06AE033
:1007F00051E016E006E0FFF7F7FC10B1FFF7F6FE58
:1008000004E000BF00BF03E002E001E007E000BF3A
:10081000802000F0DCF900203749888000BF00BF4D
:1008200059E034480078C00932D133488088002824
:1008300030D0FFF7CAFE3048808800282AD12D48E2
:100840000078C0F3411010B101281FD100E0DFE7AC
:1008500028480078C0F3040020B1012803D0022802
:1008600012D110E0D4E72348007958B921484078E4
:10087000092806D1FFF78AFC10B1FFF7B7FE04E0A4
:1008800000BF00BFC4E7C3E7C2E700E0C0E701E084
:10089000FFF7B3FE1FE017480078C009012802D116
:1008A000FFF779FE0EE00E48007810F0800F09D0B7
:1008B0000B48007800F07F0009490870084600786E
:1008C00000F083F807E0002000F08EF903E08020BC
:1008D00000F08AF900BF00BF10BD00000400001046
:1008E0000600001007000010080000100C000010A7
:1008F000100000102800001020000010160000104A
:10090000140000101500001001460A07D00E11F067
:10091000800F00D0401C70471021FF4A1160FF4932
:10092000C1F8100200BFFE49096811F0100FFAD09B
:1009300070471022F84B1A60F84AC2F8100200BF44
:10094000F74A126812F0100FFAD01022F24B1A6018
:10095000F24AC2F8101200BFF14A126812F0100FEA
:10096000FAD0704710B503460C461020EA490860DB
:100970001846FFF7C9FF4FF4A06141EA0040E7497C
:10098000C1F8100200BFE648006810F0100FFAD05E
:100990001020E1490860E148C0F8104200BFE0487B
:1009A000006810F0100FFAD010BD01463020DA4A6E
:1009B0001060DA48C0F8101200BFD948006810F083
:1009C000200FFAD0D7480068704710B5044644F0AD
:1009D00080004FF4807242EA0041D348FFF7A9FF3C
:1009E00044F080004FF4807242EA0041CE48FFF7A5
:1009F000A0FF10BD0020CD4908604FF00800C74996
:100A0000C1F84C024FF00100C84908604FF00800DF
:100A1000C249C1F84C0200BFC148006810F4807F91
:100A2000FAD04FF0FF30C2490860BC49C1F8340227
:100A3000B94908604FF00C00B849C1F8040270478A
:100A400000B5BC48406820F07050BA49486008467C
:100A5000406840F0A05048600846C068B649084069
:100A6000B449C8600846C068B4490843B149C86081
:100A70000846006920F4402008610846006940F4F7
:100A800080200861AE48006840F00040AD49C1F8E0
:100A9000C4004FF01A00AC49086000BFAB480068C2
:100AA00000F01A001A28F9D100BF18200121814056
:100AB00040094FF0E02202EB8000C0F8001100BFB7
:100AC000FFF798FF0020FFF780FF00BD10B5044638
:100AD0000CB1012000E000204FF4807242EA004196
:100AE0009B48FFF726FF10BD7047704700B5994837
:100AF000008810F0020F03D097499548FFF719FFBF
:100B000000BD704710B504460CB1012000E0002084
:100B10004FF4807242EA00419048FFF70AFF032039
:100B20008F49086000BF7E48006810F4807FFAD0CB
:100B30004FF480707849086010BD10B50446A07865
:100B4000FFF7E2FE0346864801684FF0010000FA15
:100B500003F041EA00017148C0F844127348036091
:100B6000A0886E49C1F84C0200BF6D48006810F4BF
:100B7000807FFAD04FF480706749086010BD7047DD
:100B800030B504462046FFF7BFFE764941EA0045EE
:100B900089132846FFF7CDFE30BD30B50446204608
:100BA000FFF7B2FE6F4941EA00456F492846FFF75B
:100BB000C0FE30BD30B504462046FFF7A5FE6949AA
:100BC00041EA004589132846FFF7B3FE30BD30B532
:100BD00004462046FFF798FE624941EA00455E4917
:100BE0002846FFF7A6FE30BD30B504462046FFF785
:100BF0008BFE5C4941EA004589132846FFF799FEC0
:100C000030BD10B5044659492046FFF7ABFE10BD74
:100C1000F0B504460F4604F00F00012101EB8000FF
:100C20005349086000BF5348056815F4006FFAD0B7
:100C3000C5F30905002606E04F480068386007F153
:100C4000040706F10106E81CB6EB900FF4D3002070
:100C50004749086004F00F0141F2482040FA01F0D2
:100C600010F0010F03D141492046FFF77BFE2846D3
:100C7000F0BDF0B504460D46164604F00F00022103
:100C800001EB80003A4908602448C0F824624FF024
:100C9000000706E028683949086005F1040507F1F6
:100CA0000107F01CB7EB900FF4D300203049086027
:100CB00033492046FFF756FE3046F0BD00B53148B7
:100CC000FFF72AFE3048FFF770FE03462E48FFF775
:100CD0006CFE43EA0023184600BD2DE9F04710489A
:100CE000046814F0080F59D008200B490860184810
:100CF000FFF712FE2548FFF758FE054615F0100FC6
:100D000003D0FFF777FEFFF7F9F915F0080F44D08D
:100D100015F0040F3FD03BE008C2005000C0005067
:100D200000C2005014C200500005D00048C200505C
:100D300038C2005000C00240CFFFFFCF100000209B
:100D4000C4C00F4000C00F40F4CF0050F8CF005097
:100D50000005FE0004000010000101000005D8009D
:100D600044C2005000054000000120000005F200D0
:100D700028C2005020C2005018C200501CC20050AF
:100D80000005FA000005F5000002F5000002FE0073
:100D9000FFF7AAFE01E0FFF7A8FE4DE014F0040FF4
:100DA00049D04FF000092548D0F8308200263CE0B9
:100DB000C84500D13BE00120B04010EA080F32D016
:100DC0000120B04040EA090977080120B0401C49E1
:100DD000086000BF1B48006810F0200FFAD01A48C6
:100DE000056816F0010F15D156B915F0040F07D09C
:100DF0001648006820B1154801680120884713E0B3
:100E0000124850F8270070B1104850F827100220FF
:100E1000884708E00D4850F8270020B10B4850F8EB
:100E200027100320884700BF761C202EC0D300BFA8
:100E300004200749086000BFBDE8F08700C00050EB
:100E400038C2005000C2005014C2005018150000F3
:100E500008C200503D49496BC1F3446000213C4A3F
:100E6000117010F0100F04D11146097841F0010102
:100E7000117010F0040F05D13549097841F00201D5
:100E8000334A117010F0080F05D13149097841F04B
:100E900004012F4A117010F0010F05D12C49097877
:100EA00041F008012A4A117010F0020F05D12849BB
:100EB000097841F01001264A11707047002017E0B0
:100EC00001218140234A1278114208D01F49496DFF
:100ED000214A52F8202011431C4A516507E01B4962
:100EE000496D1D4A52F820209143184A5165401C13
:100EF0000828E5DB704710B51448006C40F0FF008F
:100F0000124908640846006A20F0785008624FF4DD
:100F1000001008600846406940F4001048610F481E
:100F2000006840F08050C1F880000846D0F8940076
:100F300020F08050C1F89400FFF7E2F9FFF780FD40
:100F40000120FFF7C3FD00BFFEE7000000C009203D
:100F500054000010550000103400001080C009201B
:100F600010B539480078C0F3040010B101285FD1F2
:100F700039E03548C078012804D0022807D003287A
:100F80002DD118E03148324C2060122329E031493C
:100F9000002204E0087808B148880144521C2A481D
:100FA00080789042F6D1087808B9002010BD284812
:100FB00001604B8815E02849002204E0087808B158
:100FC00008780144521C204880789042F6D1087875
:100FD00008B90020EAE71E4801600B7801E0002014
:100FE000E4E700BF26E01848C078212804D0222872
:100FF0000DD0232818D115E01348007908B100203E
:10100000D4E714481230124C206009230EE00E4839
:10101000007908B10020C9E710480D4C2060104845
:10102000038803E00020C1E70020BFE700BF01E024
:101030000020BBE700BF06488088984201D9044CD5
:10104000A3800120B2E70000280000107C140000FB
:10105000200000108E140000B1140000581400008D
:101060007A14000070B5044633480078C0F30400D9
:1010700020B101281DD0022858D11CE02E484088FC
:10108000012813D144B1FFF73CFD2C48008840F003
:1010900002002A4908800BE00020FFF732FD2748B4
:1010A000008820F002002549088001E0002070BD82
:1010B0003EE00020FBE72048007900F08F0515F0A6
:1010C000800F05D005F00F014FF48030884001E01B
:1010D0000120A84006461A48007820B315F00F0FEB
:1010E00021D01848006830421DD013484088C0B94C
:1010F00044B12846FFF76BFD13480068304312499E
:10110000086012E011480068304201D00120CEE7AB
:101110002846FFF769FD0C480068B0430A4908609B
:1011200003E00020C3E70020C1E701E00020BEE7A4
:1011300000BF0120BBE700002800001004000010E1
:1011400007000010080000100C0000101000001034
:101150002DE9F041002763480078C0F3040000281F
:101160007ED16048807800287BD05F4C7EE060783C
:10117000022804D0042851D0052870D150E06079AD
:1011800058498978884245D156488078574908702F
:10119000207957490870002503E00020554948553B
:1011A0006D1C002DF9D0012514E00120A840524902
:1011B0000968084202D02846FFF7EFFC4FF4803060
:1011C000A8404D490968084203D045F08000FFF768
:1011D000E4FC6D1C102DE8D34FF001104649086067
:1011E000002046490860464908600120FFF78AFC54
:1011F000E07910F0400F06D04248008840F001002E
:101200004049088009E03F48008820F001003D493E
:10121000088002E06088044428E020E0E7781EE0CF
:10122000E7B9A07800F08F0515F0800F05D005F024
:101230000F014FF48030884001E00120A8400646AD
:101240002D48006830432C4908602046FFF775FCA4
:101250002846FFF795FC2846FFF7ACFC00BF01E0ED
:101260003AE008E000BF2078044400BF207800285E
:101270007FF47DAF26E000201C490870012514E0B2
:101280000120A8401C490968084202D02846FFF7FF
:1012900084FC4FF48030A84017490968084203D005
:1012A00045F08000FFF779FC6D1C102DE8D34FF05E
:1012B00001101149086000201049086010490860B9
:1012C000FFF720FC0748807808490978884202D057
:1012D0000020BDE8F08101E00020FAE700BF012016
:1012E000F7E70000280000108E140000070000102F
:1012F0001400001015000010080000100C00001071
:1013000010000010040000102DE9F05F00250026F9
:101310000027A84643480078C0F3040001287BD189
:101320004148007810B90020BDE8F09F4FF0000B55
:101330003E4C6CE06078022804D004280BD00528CD
:1013400061D11BE0607938490978884202D0608811
:1013500004445CE057E0A578E6784FF00008314897
:101360000079A84209D12F488078B04205D14FF0CA
:10137000010B2F48475D01464E5544E0294800794E
:10138000A8423FD1A07800F08F0919F0800F05D056
:1013900009F00F014FF48030884002E0012000FA8C
:1013A00009F082461F488078B04217D12148006872
:1013B00040EA0A001F4908601F48006820EA0A0046
:1013C0001D4908602046FFF7B8FB4846FFF7D8FBE9
:1013D0004846FFF7EFFB48EA0A0813E0BE4211D186
:1013E00018EA0A0F0ED11348006820EA0A001149D2
:1013F00008601148006820EA0A000F490860484662
:10140000FFF7CBFB00BF00BF2078044400BF20786B
:1014100000288FD102E0FFE7002085E700BF584693
:1014200082E7000028000010070000108E14000062
:1014300015000010080000100C00001002E008C8A1
:10144000121F08C1002AFAD17047002001E001C133
:10145000121F002AFBD170470600FF0901A10115E8
:101460000026FF0075089501090181029501090117
:10147000910295010901B102C00021001201000290
:101480000000000851C2012200010102030109020B
:101490002200010100803209040000010300000461
:1014A0000921000100012221000705810304002019
:1014B00000040309041C034B00650069006C002054
:1014C0000053006F006600740077006100720065D1
:1014D0000022034B00650069006C0020004D0043B2
:1014E0000042003100370030003000200048004941
:1014F0000044001A03300030003000310041003059
:101500000030003000300030003000300008034868
:101510000049004400000000070600001D01000013
:1015200000000000000000000000000000000000BB
:1015300000000000000000000000000000000000AB
:10154000000000000000000000000000000000009B
:1015500000000000000000007815000000000010EE
:10156000580000003C140000D01500005800001086
:10157000000200004A14000000093D0000000000C5
:10158000000000000000000000000000000000005B
:10159000000000000000000000000000000000004B
:1015A000000000000000000000000000010000003A
:1015B000020000000400000008000000100000000D
:1015C000200000004000000080000000000000003B
:04000005000000CD2A
:00000001FF
