:020000040000FA
:1000000090C4072011020000150200001702000032
:10001000190200001B0200001D0200000000000089
:100020000000000000000000000000001F020000AF
:100030002102000000000000230200002502000051
:10004000270200002702000027020000270200000C
:100050002702000031130000C11300002702000036
:1000600027020000270200002702000027020000EC
:1000700027020000270200002702000027020000DC
:1000800027020000270200002702000027020000CC
:1000900027020000270200002702000027020000BC
:1000A000E70A0000270200002702000027020000E4
:1000B000270200002702000027020000270200009C
:1000C000270200002702000027020000DFF80CD002
:1000D00000F0ACF800480047D301000090C40720AE
:1000E00010B500F00DF910BD704770B50546032D31
:1000F0000AD100F0F2FD044612480188A14202D064
:10010000048000F0DCFE00BF00BF70BD10B50446E7
:10011000022C02D0032C06D102E000F0C5FE02E062
:1001200000F0ADFE00BF00BF10BD704770477047C4
:100130007047704770477047704770477047704707
:100140007047704730C0072010B5002000F01CFE3B
:1001500010BD38B5684601F0C5F8009800280FDDDD
:100160002748008860B16946264801F04AF80446ED
:1001700000202349088022462249822000F07FFC8B
:1001800038BD0EB5684600F09DFD0098002812DDD0
:100190000098202801DD202000E00098029002A9AC
:1001A0001848403000F05CFD019001AA154940312B
:1001B000002001F04FF80EBD10B500F08EFD044692
:1001C00011480088A04203D00F48048000F077FE59
:1001D00010BD10B501F064F9FFF7B6FF00F038FB71
:1001E000012000F07BFB00BF084800780028FBD00E
:1001F00005E0FFF7AEFFFFF7DFFFFFF7C2FFF8E70D
:100200003CC0072020C107203EC0072003C00720B4
:1002100005480047FEE7FEE7FEE7FEE7FEE7FEE7EC
:10022000FEE7FEE7FEE7FEE7CD000000064C074DC7
:1002300006E0E06840F0010394E8070098471034B6
:10024000AC42F6D3FFF746FFB0020000C002000048
:1002500002E008C8121F08C1002AFAD1704770478F
:10026000002001E001C1121F002AFBD170470000ED
:100270009F030000EB0000000D01000000000000E3
:10028000000000000000000000000000000000006E
:10029000000000000000000000000000000000005E
:1002A000000000000000000000000000000000004E
:1002B0000C1D000000C007204C0000005002000090
:1002C000000000000000000000000000000000002E
:1002D000000000000000000000000000000000001E
:1002E000000000000000000000000000000000000E
:1002F000000000000000000000000000FFFFFFFF02
:100300000020FA490880FA490870FA4908704FF04D
:100310000110F94908600020F8490860F8490860B0
:10032000704710B5F749002000F07AFB10BD10B5FA
:10033000F5488088082801DD082401E0F248848817
:10034000F14822460168802000F099FB0446EE48FF
:1003500000682044EC49086008468088001B8880BB
:1003600010BD10B5E8480168002000F059FB0446B4
:10037000E54800682044E449086008468088001B7E
:10038000888010BD10B500221146802000F077FB58
:1003900010BD10B5DD49002000F042FB10BD10B5C6
:1003A0000446082C6FD2DFE804F06E04F2F16E6EA2
:1003B000F0EFFFF7B6FFD3490978C80900F0E7FA74
:1003C000D048C088D0498880CE480078C0F341101A
:1003D00010B101287BD192E0CA4840780C2877D22E
:1003E000DFE800F0060D8A158A1D333A41555E8319
:1003F00001F0E0F900B9FBE0FFF799FF7DE0002094
:1004000001F038FA00B9F3E0FFF7BCFF75E0012016
:1004100001F030FA00B9EBE0FFF7B4FF6DE000BF88
:10042000B8480078C0F3040030B9B648807840F08E
:100430008000AF49087001E0002001E000BF01200A
:1004400000B9D5E0FFF79EFF57E001F057F900B97A
:10045000CEE0FFF76CFF50E0002000F0C0FA002073
:10046000A949888049E000BFA6480078C0F304008D
:1004700018B9A048A449086001E0002001E000BFCD
:10048000012008B9B4E02EE1FFF751FF35E001F09B
:1004900067FA00B9ACE0FFF775FFFFF725FE2CE027
:1004A00000BF98480078C0F30400012814D1914897
:1004B000007870B19348007995490978884208DA44
:1004C00090480079934908448F49086003E08EE022
:1004D00012E0002004E001E0002001E000BF012064
:1004E00000B985E0FFF723FF07E001F015FB00B935
:1004F0007EE0FFF747FF00E07AE000BF7FE0814841
:100500000078C0F3040020B1012803D002286CD188
:100510006AE06DE07B48007918B17A4800790128DB
:1005200061D178484078042833D007DC78B10128BD
:1005300011D0022819D0032854D11AE0202831D034
:10054000212833D022283BD023284BD141E06F48CB
:100550006D4908604AE000F03DFC28B16B486A49EB
:100560000860FFF7E4FE41E03CE068486649086047
:100570003CE06449488800F032FC48B16348624975
:100580000860FFF7D4FE31E0A9E0A4E08BE038E09A
:1005900028E05C49488800F025FC10B1FFF7F2FE26
:1005A00024E01FE05948584908601FE000F046FC6D
:1005B00028B1564854490860FFF7B9FE16E011E02B
:1005C0005049488800F055FC10B1FFF7DBFE0DE004
:1005D00008E04C49488800F04FFC10B1FFF7D2FE0C
:1005E00004E000BF00BF03E002E001E007E000BF5D
:1005F000802000F0F4F900204349888000BF00BF4C
:1006000071E040480078C0094AD13F4880880028FE
:1006100048D0FFF7A6FE3C488088002842D13948E0
:100620000078C0F3411010B1012837D100E0DFE7B6
:1006300034480078C0F3040020B1012803D0022818
:100640002AD128E0D4E72F48007918B12D48007945
:1006500001281FD12B48407820B1022809D020283A
:1006600017D10FE000F0B4FB10B1FFF78BFE14E0E0
:100670000FE02449488800F0AFFB10B1FFF782FE7D
:100680000BE006E000F0B1FB10B1FFF77BFE04E0E9
:1006900000BF00BFACE7ABE7AAE700E0A8E701E0D6
:1006A000FFF777FE1FE017480078C009012802D144
:1006B000FFF73DFE0EE00E48007810F0800F09D0E5
:1006C0000B48007800F07F00094908700846007860
:1006D00000F083F807E0002000F08EF903E08020AE
:1006E00000F08AF900BF00BF10BD000000C0072065
:1006F00002C0072003C0072004C0072008C007204D
:100700000CC0072028C0072020C0072015C00720E4
:1007100010C0072011C0072001460A07D00E11F0B3
:10072000800F00D0401C70471021FF4A1160FF4924
:10073000C1F8100200BFFE49096811F0100FFAD08D
:1007400070471022F84B1A60F84AC2F8100200BF36
:10075000F74A126812F0100FFAD01022F24B1A600A
:10076000F24AC2F8101200BFF14A126812F0100FDC
:10077000FAD0704710B503460C461020EA490860CD
:100780001846FFF7C9FF4FF4A06141EA0040E7496E
:10079000C1F8100200BFE648006810F0100FFAD050
:1007A0001020E1490860E148C0F8104200BFE0486D
:1007B000006810F0100FFAD010BD01463020DA4A60
:1007C0001060DA48C0F8101200BFD948006810F075
:1007D000200FFAD0D7480068704710B5044644F09F
:1007E00080004FF4807242EA0041D348FFF7A9FF2E
:1007F00044F080004FF4807242EA0041CE48FFF797
:10080000A0FF10BD0020CD4908604FF00800C74987
:10081000C1F84C024FF00100C84908604FF00800D1
:10082000C249C1F84C0200BFC148006810F4807F83
:10083000FAD04FF0FF30C2490860BC49C1F8340219
:10084000B94908604FF00C00B849C1F8040270477C
:1008500000B5BC48406820F07050BA49486008466E
:10086000406840F0A05048600846C068B64908405B
:10087000B449C8600846C068B4490843B149C86073
:100880000846006920F4402008610846006940F4E9
:1008900080200861AE48006840F00040AD49C1F8D2
:1008A000C4004FF01A00AC49086000BFAB480068B4
:1008B00000F01A001A28F9D100BF18200121814048
:1008C00040094FF0E02202EB8000C0F8001100BFA9
:1008D000FFF798FF0020FFF780FF00BD10B504462A
:1008E0000CB1012000E000204FF4807242EA004188
:1008F0009B48FFF726FF10BD7047704700B5994829
:10090000008810F0020F03D097499548FFF719FFB0
:1009100000BD704710B504460CB1012000E0002076
:100920004FF4807242EA00419048FFF70AFF03202B
:100930008F49086000BF7E48006810F4807FFAD0BD
:100940004FF480707849086010BD10B50446A07857
:10095000FFF7E2FE0346864801684FF0010000FA07
:1009600003F041EA00017148C0F844127348036083
:10097000A0886E49C1F84C0200BF6D48006810F4B1
:10098000807FFAD04FF480706749086010BD7047CF
:1009900030B504462046FFF7BFFE764941EA0045E0
:1009A00089132846FFF7CDFE30BD30B504462046FA
:1009B000FFF7B2FE6F4941EA00456F492846FFF74D
:1009C000C0FE30BD30B504462046FFF7A5FE69499C
:1009D00041EA004589132846FFF7B3FE30BD30B524
:1009E00004462046FFF798FE624941EA00455E4909
:1009F0002846FFF7A6FE30BD30B504462046FFF777
:100A00008BFE5C4941EA004589132846FFF799FEB1
:100A100030BD10B5044659492046FFF7ABFE10BD66
:100A2000F0B504460D4604F00F00012101EB8000F3
:100A30005349086000BF5348066816F4006FFAD0A7
:100A4000C6F30906002706E04F480068286005F154
:100A5000040507F10107F01CB7EB900FF4D3002059
:100A60004749086041F2482040FA04F010F0010FB5
:100A700003D142492046FFF77DFE3046F0BDF0B578
:100A800004460D46164604F00F00022101EB8000DB
:100A90003B4908602548C0F824624FF0000706E093
:100AA00028683A49086005F1040507F10107F01CC0
:100AB000B7EB900FF4D30020314908603449204649
:100AC000FFF758FE3046F0BD00B53248FFF72CFE68
:100AD0003148FFF772FE03462F48FFF76EFE43EAE8
:100AE0000023184600BD2DE9F0471148046814F0B2
:100AF000080F58D008200C4908601948FFF714FE69
:100B00002648FFF75AFE054615F0100F03D0FFF7F1
:100B100079FEFFF7E5FA15F0080F43D015F0040F42
:100B20003ED0FFF7E9FE3DE008C2005000C0005093
:100B300000C2005014C200500005D00048C200504E
:100B400038C2005000C00240CFFFFFCF100000208D
:100B5000C4C00F4000C00F40F4CF0050F8CF005089
:100B60000005FE0000C00720000101000005D800BC
:100B700044C2005000054000000120000005F200C2
:100B800028C2005020C2005018C200501CC20050A1
:100B90000005FA000005F5000002F5000002FE0065
:100BA000FFF7ABFE4DE014F0040F49D04FF0000901
:100BB0002548D0F8308200263CE0C84500D13BE013
:100BC0000120B04010EA080F32D00120B04040EAC6
:100BD000090977080120B0401C49086000BF1C4883
:100BE000006810F0200FFAD01A48056816F0010FBF
:100BF00015D156B915F0040F07D01748006820B179
:100C0000154801680120884713E0134850F8270071
:100C100070B1114850F827100220884708E00E48AC
:100C200050F8270020B10C4850F8271003208847BF
:100C300000BF761C202EC0D300BF042007490860E7
:100C400000BFBDE8F087000000C0005038C200506F
:100C500000C2005014C200507002000008C20050D0
:100C600070B503460A680C68944201DD144600E042
:100C70000C68224610460BE09E4C656C646C641C4C
:100C80009C4E746405F03F0435462C5D03F8014B1F
:100C90001400A2F10102EFD170BDF0B502460B685D
:100CA00018460CE012F8015B924C266C246C641C14
:100CB000904F3C6406F03F043E4635555B1E002BCA
:100CC000F0D1F0BD01468B48006C8A4A526C801A04
:100CD00000F03F0008600020704708B500208649FA
:100CE0000880684600F009FBBDF8000010F4004FD2
:100CF00005D08148008840F001007F490880BDF898
:100D0000000010F4005F05D07B48008840F002002E
:100D100079490880BDF8000010F0100F05D0764822
:100D2000008840F0040074490880BDF8000010F409
:100D3000804F05D07048008840F008006E49088058
:100D4000BDF8000010F0080F05D06B48008840F097
:100D5000100069490880BDF8000010F0040F05D0AC
:100D60006548008840F0200063490880BDF8000015
:100D700010F0020F05D06048008840F040005E4946
:100D800008805D48008808BD70B5044654B900204D
:100D900000F0C0F8594D2B796A79A979286800F0DC
:100DA000F7F809E0012000F0B5F8544D2B796A7985
:100DB000A979286800F08CF9012051490880FFF7D3
:100DC0008CFF4D49088000204A490864486470BD82
:100DD00001207047012070470146012070470146FD
:100DE0000120704701460120704710B54548007842
:100DF0004449497840EA01204249897840EA014063
:100E00004049C97840EA01603C4908603D480079A2
:100E100008713C48407948713A48807988710020CF
:100E200000F099F8002000F075F8344C23796279CD
:100E3000A179206800F0ACF8012010BD2F480068AF
:100E4000304908702D480068000A48702B48006837
:100E5000000C887029480068000EC8702748007987
:100E600008712648407948712448807988710120AA
:100E7000704701460120704701460120704738B590
:100E8000684600F02FFA69461F4800F0BAF9044698
:100E9000002C05DD22461C498220FFF7F0FD02E010
:100EA00001201749088038BD08B518490220FFF70E
:100EB000B7FD009069461548FFF7EFFE08BD10B575
:100EC000A120134908702020487000208870C87045
:100ED00008714871022088710020C8710648008896
:100EE000087205480088000A48720A228120FFF72C
:100EF000C6FD10BDD8C007203AC0072032C0072069
:100F00003CC0072015C007204CC007208CC007201C
:100F1000CCC0072010B5044674B9052000F0A9FA2A
:100F2000F948006820F0F000F749086008460068BA
:100F300040F0500008600DE0062000F09AFAF248F8
:100F4000006920F00F00F04908610846006940F090
:100F50000A00086110BD10B5044664B9EA4800688B
:100F600020F0F000E84908600020E84948600520CA
:100F700000F07FFA0BE0E448006920F00F00E2493E
:100F800008610020E2494860062000F072FA10BDB6
:100F90002DE9FF4F81B004460D461646052D06D0BB
:100FA000062D07D0072D08D0082D0AD008E04FF0F5
:100FB000000809E04FF0010806E04FF0020803E0E6
:100FC00000BF4FF0030800BF00BF049840B10128E4
:100FD00002D0022803D100E000BF042702E000BFD6
:100FE000002700BF00BF052E10D2DFE806F0100377
:100FF00006090C00082000900CE01820009009E081
:101000002820009006E03820009003E000BF002078
:10101000009000BF00BF0020BE49C1F88000C1F8A9
:101020008400BD49C1F88000C1F88400BB48006855
:10103000C0F3811ABAF1000F09D0BAF1010F0BD039
:10104000BAF1020F0CD0BAF1030F0ED000BFB448B2
:1010500000684FEA900B0DE0B148D0F800B009E00D
:10106000AF4800684FEA500B04E0AD4800684FEA13
:10107000D00B00BF00BF4FEA1B10B0FBF4F90020FB
:10108000A849087048F08000009940EA010040EA51
:1010900007009E49087381F800904FEA19200871F3
:1010A000009948EA010040EA0700984908734FF0A8
:1010B000030048604FF0070008724FF001009A49A2
:1010C00008604FF0050000F0C8F905B0BDE8F08FEA
:1010D0002DE9FF4F81B004460D461646052D06D07A
:1010E000062D07D0072D08D0082D0AD008E04FF0B4
:1010F000000809E04FF0010806E04FF0020803E0A5
:1011000000BF4FF0030800BF00BF049840B10128A2
:1011100002D0022803D100E000BF042702E000BF94
:10112000002700BF00BF052E10D2DFE806F0100335
:1011300006090C00082000900CE01820009009E03F
:101140002820009006E03820009003E000BF002037
:10115000009000BF00BF00206E49C1F88000C1F8B8
:1011600084006D49C1F88000C1F884006B480068B4
:10117000C0F3012ABAF1000F09D0BAF1010F0BD068
:10118000BAF1020F0CD0BAF1030F0ED000BF6448C1
:1011900000684FEA900B0DE06148D0F800B009E01C
:1011A0005F4800684FEA500B04E05D4800684FEA72
:1011B000D00B00BF00BF4FEA1B10B0FBF4F90020BA
:1011C0005349886248F080000099084338435049E9
:1011D000087381F800904FEA19200871009948EAD5
:1011E000010038434A490873032048600720087209
:1011F00001204D490860062000F02FF905B0BDE838
:10120000F08F70B503460A680C68944201DD1446FD
:1012100000E00C682246104617E000BF3E4CD4F8B0
:1012200084403D4DD5F88050AC42F7D03A4CD4F8CC
:101230008450D4F88440641C374EC6F8844005F0CE
:101240007F0435462C5D03F8014B1400A2F1010226
:10125000E3D170BDF0B503461468204600BF2D4DA4
:10126000D5F884502B4ED6F88060B542F7D110E007
:1012700011F8016B274DD5F88070D5F880506D1CA2
:10128000DFF890C0CCF8805007F07F0567467E55A8
:10129000641E002CECD1244D2D6815B30025224E80
:1012A00035607BB91B4DD5F88460D5F884506D1C32
:1012B000184FC7F8845006F07F053E46755D134E03
:1012C00035700EE0134DD5F88460D5F884506D1C50
:1012D000104FC7F8845006F07F053E46755D0C4EF2
:1012E0003570F0BD0C49D1F880100B4AD2F884203B
:1012F000891A01F07F01016070470C49098801805B
:1013000000210A4A1180704700C0024000C000401E
:101310000000014080C1072008C20720A8C10F407B
:1013200048C0072028C0004040C0072044C0072014
:1013300010B55449886810F0040F02D110F00C0F5A
:1013400014D00EE04F490A784F49D1F88030D1F8D7
:101350008010491C4C4CC4F8801003F07F012346D8
:101360005A544849097D11F0010FEBD110F0020FDA
:101370001FD04649D1F88010444AD2F88420891AF7
:1013800011F07F0F12D04149D1F88420D1F8841098
:10139000491C3E4BC3F8841002F07F011A46515C91
:1013A000384A117000213A4A116002E00121384A9E
:1013B00011603449097D01F01E01364A118010BDCB
:1013C00010B53549886810F0040F02D110F00C0FE9
:1013D00014D00EE030490A782B49D1F88030D1F88A
:1013E0008010491C284CC4F8801003F07F0123466C
:1013F0005A542949097D11F0010FEBD110F0020F69
:101400001FD02249D1F88010204AD2F88420891AAE
:1014100011F07F0F12D01D49D1F88420D1F884102B
:10142000491C1A4BC3F8841002F07F011A46515C24
:10143000194A11700021164A116002E00121144A74
:1014400011601549097D144A127E41EA02214EF2CB
:101450001E0211400F4A118010BD00F01F02012131
:10146000914042094FF0E02303EB8202C2F80011E1
:10147000704700F01F0101228A400849430941F8E2
:101480002320704700C0004008C2072080C1072009
:1014900040C0072044C007200000014080E100E078
:1014A00020208449086000BF8248006810F0400F87
:1014B000FAD00320804908604FF000007F49C1F84E
:1014C000A8017F4908604FF001007E4908604FF095
:1014D0000B007D4908604FF00100A1F10401086094
:1014E0004FF0AA00794908604FF055007349C1F8E0
:1014F0008C0000BF7648006810F0806FFAD003209F
:10150000744908604FF0AA006C49C1F88C004FF094
:1015100055006E4908604FF023006F4908604FF096
:101520000100A1F1040108604FF0AA006B490860B6
:101530004FF05500086000BF6948006810F4806FE4
:10154000FAD00320674908604FF0AA005B49C1F850
:10155000AC004FF05500614908606348634908607A
:101560004FF000005549C1F8C8010846D0F888007E
:10157000C0F30160032868D15248006810F00300EE
:1015800006D0012823D002283FD003285CD100E0F8
:1015900000BF4F480068C0F30E0000F101004FEAA1
:1015A00040014648D0F88800C0F3074000F1010030
:1015B000B1FBF0F14E4801FB00F13F480068C0B2BA
:1015C00000F10100B1FBF0F04A4908603CE04048FE
:1015D0000068C0F30E0000F101004FEA40013748F7
:1015E000D0F88800C0F3074000F10100B1FBF0F132
:1015F000414801FB00F130480068C0B200F1010031
:10160000B1FBF0F03B4908601EE031480068C0F3D0
:101610000E0000F101004FEA40012848D0F8880090
:10162000C0F3074000F10100B1FBF0F14FF4FA40C4
:1016300001FB00F120480068C0B200F10100B1FBDD
:10164000F0F02C49086000BF2FE01E48006810F041
:10165000030006D0012810D0022819D0032823D176
:1016600000E000BF14480068C0B200F1010020494A
:10167000B1FBF0F01F49086016E00F480068C0B2E7
:1016800000F101001C49B1FBF0F01A4908600BE0C1
:1016900009480068C0B200F101004FF4FA41B1FB03
:1016A000F0F01449086000BF00BF43F23A0003495C
:1016B00008607047A0C10F4004C10F4000C00F4038
:1016C000ACC10F400CC10F4084C00F408CC00F4014
:1016D00088C00F4080C00F40A4C00F40ACC00F4076
:1016E000A8C00F40A0C00F40DE872804C4C00F4030
:1016F00000093D0048C00720001BB70010B528486E
:101700000078C0F3040010B101283ED13AE024482B
:10171000C078012804D0022807D003282ED118E071
:101720002048214C206012232AE02049002204E0B6
:10173000087808B148880144521C194880789042C2
:10174000F6D1087808B9002010BD174801604B8811
:1017500016E01749002204E0087808B1087801442F
:10176000521C0F4880789042F6D1087808B90020C2
:10177000EAE70D4801600068037801E00020E3E734
:1017800000BF04E000BF0020DEE70020DCE700BF70
:1017900005488088984201D9034CA3800120D3E7F3
:1017A00028C007204C1C000020C007205E1C000041
:1017B000A21C000027480078C0F3040020B10128D3
:1017C00006D0022841D116E02348244B18603EE0A1
:1017D0002348007860B11F480079224B1B7898425B
:1017E00006DA0020204B188018461C4B186001E0D8
:1017F000002070472BE01748007900F08F0111F0AE
:10180000800F05D001F00F034FF48030984001E0C5
:101810000120884002461248007810B911F00F0FDD
:1018200010D11248006810420CD0114800681042D4
:1018300001D0012000E000200B4B18801846074B18
:10184000186001E00020D4E701E00020D1E700BFEC
:101850000120CEE728C0072000C0072020C00720B5
:1018600003C0072010C0072015C0072004C00720B0
:1018700008C0072070B5044633480078C0F3040060
:1018800020B101281DD0022858D11CE02E484088E4
:10189000012813D144B1FFF73CF82C48008840F0F0
:1018A00002002A4908800BE00020FFF732F82748A1
:1018B000008820F002002549088001E0002070BD6A
:1018C0003EE00020FBE72048007900F08F0515F08E
:1018D000800F05D005F00F014FF48030884001E003
:1018E0000120A84006461A48007820B315F00F0FD3
:1018F00021D01848006830421DD013484088C0B934
:1019000044B12846FFF76BF813480068304312498A
:10191000086012E011480068304201D00120CEE793
:101920002846FFF769F80C480068B0430A49086088
:1019300003E00020C3E70020C1E701E00020BEE78C
:1019400000BF0120BBE7000028C0072000C007201F
:1019500003C0072004C0072008C007200CC00720D0
:101960002DE9F041002763480078C0F30400002807
:101970007ED16048807800287BD05F4C7EE0607824
:10198000022804D0042851D0052870D150E0607995
:1019900058498978884245D1564880785749087017
:1019A000207957490870002503E000205549485523
:1019B0006D1C042DF9D3012514E00120A8405249E3
:1019C0000968084202D02846FEF7EFFF4FF4803046
:1019D000A8404D490968084203D045F08000FEF751
:1019E000E4FF6D1C102DE8D34FF00110464908604C
:1019F000002046490860464908600120FEF78AFF3A
:101A0000E07910F0400F06D04248008840F0010015
:101A10004049088009E03F48008820F001003D4926
:101A2000088002E06088044428E020E0E7781EE0B7
:101A3000E7B9A07800F08F0515F0800F05D005F00C
:101A40000F014FF48030884001E00120A840064695
:101A50002D48006830432C4908602046FEF775FF8A
:101A60002846FEF795FF2846FEF7ACFF00BF01E0D1
:101A70003AE008E000BF2078044400BF2078002846
:101A80007FF47DAF26E000201C490870012514E09A
:101A90000120A8401C490968084202D02846FEF7E8
:101AA00084FF4FF48030A84017490968084203D0EA
:101AB00045F08000FEF779FF6D1C102DE8D34FF044
:101AC00001101149086000201049086010490860A1
:101AD000FEF720FF0748807808490978884202D03D
:101AE0000020BDE8F08101E00020FAE700BF0120FE
:101AF000F7E7000028C007205E1C000003C0072095
:101B000010C0072011C0072004C0072008C007200C
:101B10000CC0072000C007202DE9F05F002500263B
:101B20000027A84643480078C0F3040001287BD171
:101B30004148007810B90020BDE8F09F4FF0000B3D
:101B40003E4C6CE06078022804D004280BD00528B5
:101B500061D11BE0607938490978884202D06088F9
:101B600004445CE057E0A578E6784FF0000831487F
:101B70000079A84209D12F488078B04205D14FF0B2
:101B8000010B2F48475D01464E5544E02948007936
:101B9000A8423FD1A07800F08F0919F0800F05D03E
:101BA00009F00F014FF48030884002E0012000FA74
:101BB00009F082461F488078B04217D1214800685A
:101BC00040EA0A001F4908601F48006820EA0A002E
:101BD0001D4908602046FEF7B8FE4846FEF7D8FECD
:101BE0004846FEF7EFFE48EA0A0813E0BE4211D16C
:101BF00018EA0A0F0ED11348006820EA0A001149BA
:101C000008601148006820EA0A000F490860484649
:101C1000FEF7CBFE00BF00BF2078044400BF207851
:101C200000288FD102E0FFE7002085E700BF58467B
:101C300082E7000028C0072003C007205E1C0000C8
:101C400011C0072004C0072008C0072012010002AD
:101C500002000008C91F022000010102030109025D
:101C60004300020100803209040000010202005E0C
:101C700005240010010524010101042402020524A9
:101C80000600010705810310000209040100020A91
:101C900000005E07050202400000070582024000C6
:101CA0000000040309041C034E00580050002000EB
:101CB000530045004D00490043004F004E004400D2
:101CC000200024034E005800500020004C0050001B
:101CD00043003100370078007800200056004300B0
:101CE0004F004D0020001A03440045004D004F00F6
:101CF0003000300030003000300030003000300064
:101D00000A03560043004F004D0000000000000091
:101D100000000000000000000000000000000000C3
:101D200000000000000000000000000000000000B3
:101D300000000000000000000000000000008025FE
:101D4000000000000800000001000000000000008A
:081D50000000000000093D0045
:04000005000000CD2A
:00000001FF
