:020000040000FA
:10000000780300106D010000710100007301000011
:100010007501000077010000790100000000000078
:100020000000000000000000000000007B01000054
:100030007D010000000000007F0100008101000040
:10004000830100006F0900008301000083010000AC
:100050008301000083010000830100008301000090
:100060008301000083010000830100008301000080
:100070008301000083010000830100008301000070
:100080008301000083010000830100008301000060
:100090008301000083010000830100008301000050
:1000A000E3110000830100008301000083010000D0
:1000B0008301000083010000830100008301000030
:1000C00083010000830100008301000000F002F8BA
:1000D00000F03CF80AA090E8000C82448344AAF1A6
:1000E0000107DA4501D100F031F8AFF2090EBAE8A4
:1000F0000F0013F0010F18BFFB1A43F0010318475C
:10010000C01A0000F01A0000103A24BF78C878C165
:10011000FAD8520724BF30C830C144BF04680C600D
:10012000704700000023002400250026103A28BF55
:1001300078C1FBD8520728BF30C148BF0B60704759
:100140001FB501F09BFC1FBD10B510BD00F09BF862
:100150001146FFF7F5FF00F07BFC00F0B9F803B49F
:10016000FFF7F2FF03BC01F0D7F900000848004791
:10017000FEE7FEE7FEE7FEE7FEE7FEE7FEE7FEE757
:10018000FEE7FEE703480449024A044B70470000BB
:10019000CD000000780100107803001078010010F5
:1001A00010B500F0DBF910BD7047704770471FB500
:1001B000044614F0080F2AD0032000F0E5FF2B4975
:1001C00009682B4A1288022303FB0211884217D0C8
:1001D0002748008880302649088008460088C0F3F8
:1001E000090008800846008822490988401AC0F39F
:1001F0000900B0F5007F0AD101201F49087006E010
:1002000000201D4908701A4800881A4908800A20F1
:10021000F0B11648006816490988022202FB010065
:1002200000900420ADF804000020ADF8060013484B
:100230000068029000200390039820F00200801CC8
:1002400003906946032000F0DFFE032000F062FF08
:100250001FBD7047704770477047704770477047C1
:1002600070477047704770477047000030000010BB
:100270003E0000103C000010400000102C00001058
:10028000704770477047754600F028F8AE46050085
:100290006946534620F00700854618B020B5FFF7A1
:1002A00071FFBDE820404FF000064FF000074FF00F
:1002B00000084FF0000B21F00701AC46ACE8C00984
:1002C000ACE8C009ACE8C009ACE8C0098D4670478D
:1002D0000446AFF300802046FFF741FF0048704717
:1002E0001801001001487047704700001C01001001
:1002F000704700000000000000000000FFFFFFFF4B
:1003000020208449086000BF8248006810F0400F38
:10031000FAD00320804908604FF000007F49C1F8FF
:10032000A8017F4908604FF001007E4908604FF046
:100330000B007D4908604FF00100A1F10401086045
:100340004FF0AA00794908604FF055007349C1F891
:100350008C0000BF7648006810F0806FFAD0032050
:10036000744908604FF0AA006C49C1F88C004FF046
:1003700055006E4908604FF023006F4908604FF048
:100380000100A1F1040108604FF0AA006B49086068
:100390004FF05500086000BF6948006810F4806F96
:1003A000FAD00320674908604FF0AA005B49C1F802
:1003B000AC004FF05500614908606348634908602C
:1003C0004FF000005549C1F8C8010846D0F8880030
:1003D000C0F30160032868D15248006810F00300A0
:1003E00006D0012823D002283FD003285CD100E0AA
:1003F00000BF4F480068C0F30E0000F101004FEA53
:1004000040014648D0F88800C0F3074000F10100E1
:10041000B1FBF0F14E4801FB00F13F480068C0B26B
:1004200000F10100B1FBF0F04A4908603CE04048AF
:100430000068C0F30E0000F101004FEA40013748A8
:10044000D0F88800C0F3074000F10100B1FBF0F1E3
:10045000414801FB00F130480068C0B200F10100E2
:10046000B1FBF0F03B4908601EE031480068C0F382
:100470000E0000F101004FEA40012848D0F8880042
:10048000C0F3074000F10100B1FBF0F14FF4FA4076
:1004900001FB00F120480068C0B200F10100B1FB8F
:1004A000F0F02C49086000BF2FE01E48006810F0F3
:1004B000030006D0012810D0022819D0032823D128
:1004C00000E000BF14480068C0B200F101002049FC
:1004D000B1FBF0F01F49086016E00F480068C0B299
:1004E00000F101001C49B1FBF0F01A4908600BE073
:1004F00009480068C0B200F101004FF4FA41B1FBB5
:10050000F0F01449086000BF00BF43F23A0003490D
:1005100008607047A0C10F4004C10F4000C00F40E9
:10052000ACC10F400CC10F4084C00F408CC00F40C5
:1005300088C00F4080C00F40A4C00F40ACC00F4027
:10054000A8C00F40A0C00F40DE872804C4C00F40E1
:1005500000093D0000000010001BB7000020EB491F
:100560000880EB490870EB4908704FF00110EA4928
:1005700008600020E9490860E9490860704710B543
:10058000E849002000F09FFC10BD10B5E6488088C7
:10059000402801DD402401E0E3488488E248224607
:1005A0000168802000F0BEFC0446DF48006820445B
:1005B000DD49086008468088001B888010BD10B5A2
:1005C000D9480168002000F07EFC0446D648006847
:1005D0002044D549086008468088001B888010BDEB
:1005E00010B500221146802000F09CFC10BD10B513
:1005F000CE49002000F067FC10BD10B50446082C61
:100600006FD2DFE804F06E04F2F16E6EF0EFFFF7E8
:10061000B6FFC4490978C80900F00CFCC148C0887D
:10062000C1498880BF480078C0F3411010B101284B
:1006300079D190E0BB4840780C2875D2DFE800F013
:10064000060D8815881D333A41555C8100F0CAFFBC
:1006500000B9E1E0FFF799FF7BE0002001F022F80C
:1006600000B9D9E0FFF7BCFF73E0012001F01AF8F0
:1006700000B9D1E0FFF7B4FF6BE000BFA9480078F4
:10068000C0F3040030B9A748807840F08000A0494A
:10069000087001E0002001E000BF012000B9BBE0CC
:1006A000FFF79EFF55E000F041FF00B9B4E0FFF70F
:1006B0006CFF4EE0002000F0E5FB00209A498880A6
:1006C00047E000BF97480078C0F3040018B991488C
:1006D0009549086001E0002001E000BF012008B951
:1006E0009AE010E1FFF751FF33E001F051F800B953
:1006F00092E0FFF775FF2CE000BF8A480078C0F356
:100700000400012814D18348007870B1854800792D
:1007100087490978884208DA82480079854908447F
:100720008149086003E076E012E0002004E001E087
:10073000002001E000BF012000B96DE0FFF725FFB8
:1007400007E001F001F900B966E0FFF749FF00E0BA
:1007500062E000BF67E073480078C0F3040020B196
:10076000012803D0022854D12DE055E06D480079CE
:1007700038B16C480079012803D06A480079022812
:1007800020D16848407882280BD004DC012814D09E
:10079000812816D104E0832804D0842811D102E0F6
:1007A00000BF00BF00BF00F043FE28B15F485E49B4
:1007B0000860FFF7EAFE2DE003E05C485A49086054
:1007C00028E000BF28E05748407882280FD004DC9A
:1007D000012818D081281AD108E0832808D084285D
:1007E00015D106E08BE086E06DE01EE000BF00BFA3
:1007F00000BF00F085FE28B14C484B490860FFF768
:10080000C4FE07E003E049484749086002E000BF32
:1008100002E001E007E000BF802000F033FB002091
:100820004149888000BF00BF6DE03E480078C009A4
:1008300046D13D488088002844D0FFF7C0FE3A48A2
:10084000808800283ED137480078C0F3411010B1AD
:10085000012833D100E0DFE732480078C0F304001C
:1008600020B1012803D0022826D118E0D4E72D4872
:10087000007938B12B480079012803D02948007944
:1008800002280BD127484078012806D100F010FE3D
:1008900010B1FFF7A5FE10E000BF00BFBCE7214884
:1008A0004078012806D100F02DFE10B1FFF798FE28
:1008B00003E000BF00BFAFE7AEE700E0ACE701E058
:1008C000FFF795FE1FE017480078C009012802D104
:1008D000FFF75BFE0EE00E48007810F0800F09D0A5
:1008E0000B48007800F07F0009490870084600783E
:1008F00000F097F907E0002000F0D1FA03E0802033
:1009000000F0CDFA00BF00BF10BD000004000010D1
:100910000600001007000010080000100C00001076
:1009200010000010240000101C00001058000010DF
:1009300014000010150000107649096841F080711C
:10094000744A116000BF7349486810F0004FFAD034
:10095000096821F080716F4A1160F82101EA1021C5
:10096000082202EAD01211446B4A1180704710B578
:100970006A480078002836D06948006869490988C3
:1009800030F911406848008866490988401AC0F368
:100990000903B3F5607F04D162480088401C6149B7
:1009A0000880802B04D95F480088401C5D4908807E
:1009B0005C480088C0F309005A490880002C05DA19
:1009C0005A480068001B5949086004E0574800680D
:1009D000204456490860564800684443241404F5EE
:1009E0000044A4B201E04FF400445248007808B13A
:1009F0004FF400444FF6C07020404F4908604F4804
:100A000001680068401C4D4A10608805800D1AD1AD
:100A1000FFF792FF4A480088B0F5004F03D100204D
:100A20004349086006E0464800883B490988484336
:100A30003F4908603D480068040D00203B490860BC
:100A4000072C00DD072401204FF04021086010BD75
:100A500070B5FFF755FC3B48406820F470103949E9
:100A600048600846406840F4101048603648006C02
:100A700040F00100344908643248C06840F040400A
:100A80003049C8603148006840F480503049C1F8AE
:100A9000C40030481F4908604FF4004026490860F0
:100AA0002D480068C0F3810434B1012C08D0022C19
:100AB00009D0032C0BD000BF2848006885080AE045
:100AC0002648056807E025480068450803E02348F4
:100AD0000068C50800BF00BF4FF4FA40B5FBF0F056
:100AE000401E4FF04021886103204861012048608A
:100AF00000BF00FA00F140094FF0E02202EB800055
:100B0000C0F8001100BF00F0F6F8012000F039F93C
:100B100000BFFEE70040034042000010400000100C
:100B2000300000103C0000103E0000104400001097
:100B3000380000103400001000C0084048000010C9
:100B40005400001000C0024000C00920C4C00F4083
:100B500000C00F4020042000A8C10F40000000107A
:100B600001460A07D00E11F0800F00D0401C7047DC
:100B70001021FF4A1160FF49C1F8100200BFFE4971
:100B8000096811F0100FFAD070471022F84B1A6064
:100B9000F84AC2F8100200BFF74A126812F0100FAC
:100BA000FAD01022F24B1A60F24AC2F8101200BFBB
:100BB000F14A126812F0100FFAD0704710B50346D0
:100BC0000C461020EA4908601846FFF7C9FF4FF4A9
:100BD000A06141EA0040E749C1F8100200BFE648C1
:100BE000006810F0100FFAD01020E1490860E148C9
:100BF000C0F8104200BFE048006810F0100FFAD0B3
:100C000010BD01463020DA4A1060DA48C0F81012F0
:100C100000BFD948006810F0200FFAD0D74800680C
:100C2000704710B5044644F080004FF4807242EAE9
:100C30000041D348FFF7A9FF44F080004FF48072D1
:100C400042EA0041CE48FFF7A0FF10BD0021CD4A87
:100C500011604FF04001C74AC2F84C124FF0010139
:100C6000C84A11604FF04001C24AC2F84C1200BF9E
:100C7000C149096811F4807FFAD04FF0FF31C24AB0
:100C800011606FF04001BB4AC2F834124FF0FF31DF
:100C9000B74A11604FF00D01A2F104021160BB4987
:100CA000BB4A11604FF0FF31BA4A1160BA4A116075
:100CB0004FF04001A2F1040211604FF0FF31B74A3A
:100CC0001160B74A1160B74A11604FF00701B64A88
:100CD00011604FF00001B54A11605160084607E00D
:100CE0000021B34A42F82010B24A42F82010401CBA
:100CF0002028F5D3704700B5AF48406820F0705009
:100D0000AD4948600846406840F0A0504860084639
:100D1000C068AA490840A849C8600846C068A849F0
:100D20000843A549C8600846006920F440200861CE
:100D30000846006940F480200861A248006840F03D
:100D40000040A149C1F8C4004FF01A009F49086053
:100D500000BF9F48006800F01A001A28F9D100BFB0
:100D600018200121814040094FF0E02202EB800071
:100D7000C0F8001100BFFFF769FF0020FFF751FF27
:100D800000BD10B504460CB1012000E000204FF476
:100D9000807242EA00418F48FFF7F7FE10BD7047AE
:100DA000704700B58C48008810F0020F03D08B49C3
:100DB0008848FFF7EAFE00BD704710B504460CB145
:100DC000012000E000204FF4807242EA0041844894
:100DD000FFF7DBFE03208349086000BF6648006818
:100DE00010F4807FFAD04FF480706149086010BD24
:100DF00010B50446A078FFF7B3FE034679480168B2
:100E00004FF0010000FA03F041EA00015948C0F830
:100E100044125C480360A0885649C1F84C0200BFE8
:100E20005548006810F4807FFAD04FF48070504924
:100E3000086010BD704730B504462046FFF790FEAD
:100E4000694941EA004589132846FFF79EFE30BDF7
:100E500030B504462046FFF783FE634941EA00456A
:100E600062492846FFF791FE30BD30B50446204662
:100E7000FFF776FE5C4941EA004589132846FFF7F3
:100E800084FE30BD30B504462046FFF769FE564962
:100E900041EA004551492846FFF777FE30BD30B59D
:100EA00004462046FFF75CFE4F4941EA004589139E
:100EB0002846FFF76AFE30BD10B504464C4920466F
:100EC000FFF77CFE10BDF0B504460D4604F00F00A0
:100ED000012101EB80004749086000BF46480668D1
:100EE00016F4006FFAD0C6F30906002706E043485F
:100EF0000068286005F1040507F10107F01CB7EB55
:100F0000900FF4D300203B49086041F2482040FA9A
:100F100004F010F0010F03D135492046FFF74EFED3
:100F20003046F0BDF0B504460D46164604F00F00FD
:100F3000022101EB80002F4908600E48C0F82462AE
:100F40004FF0000706E028682D49086005F1040508
:100F500007F10107F01CB7EB900FF4D300202549EF
:100F6000086028492046FFF729FE3046F0BD000002
:100F700008C2005000C0005000C2005014C200500F
:100F80000005D00048C2005038C2005000000820C0
:100F900080C2005054C200508CC20050A4C2005005
:100FA000B0C20050BCC2005094C200504C000010AF
:100FB000980000100000082000C00240CFFFFFCFC3
:100FC00010000020C4C00F4000C00F40F4CF0050FC
:100FD000F8CF00500005FE000400001000010100E1
:100FE0000005D80044C20050000540000001200068
:100FF0000005F20028C2005020C2005018C2005064
:101000001CC200500005FA002DE9F04303460C46CF
:10101000E068C0F340091846FFF7A2FD0546002628
:10102000EB4850F8258018E04646E068C0F3000021
:1010300088B9E84850F82900301AE74951F82910D2
:10104000B0FBF1F7E54850F829100120B840814382
:10105000E24840F82910D6F80080B8F1000FE3D13B
:10106000002708E0DD4850F829000121B940084276
:1010700000D102E07F1C202FF4D300BF202F02D12B
:101080000020BDE8F083D54850F829100120B84071
:101090000143D24840F82910CE4850F82900CE49E3
:1010A00051F8291007FB010856B1E068C0F30000B1
:1010B00030B1C6F80080706840F00400706005E050
:1010C000C34840F82580C64840F82580002048F8ED
:1010D000040BE068C0F38000E168C1F3400140EA1E
:1010E0000110E18840EA4110A18840EA014048F837
:1010F000040B206848F8040BE068C0F307200002E6
:1011000048F8040BB9F1000F02D0A068C8F800003D
:101110000120B6E700B503461846FFF721FD01217F
:101120008140B048016000BD00B503461846FFF796
:1011300017FD01218140AC48016000BD30B5034678
:101140001846FFF70DFDA64951F820500DB90020B3
:1011500030BDEC68C4F343000A2812D2DFE800F087
:101160000507090B111111110D0F0120F0E70220E5
:10117000EEE70320ECE70520EAE70420E8E7062095
:10118000E6E74FF6FF70E3E730B503461846FFF792
:10119000E7FC934951F8204014B94FF0FF3030BDBF
:1011A000A5682846FBE730B503461846FFF7D8FC8C
:1011B0008B4951F8205015B94FF0FF3030BDEC6825
:1011C000200CFBE700B58948FFF7D2FC8848FFF701
:1011D00018FD03468648FFF714FD43EA002318462E
:1011E00000BD2DE9F0478348046814F0080F1CD0B7
:1011F0000820814908608148FFF7BAFC8048FFF762
:1012000000FD054615F0100F03D0FFF71FFDFEF798
:10121000C7FF15F0080F07D015F0040F02D0FFF735
:10122000BEFD01E0FFF7BCFDD0E014F0010F01D0DE
:10123000FEF7BAFF14F0040F49D04FF000097148CF
:10124000D0F8308200263CE0C84500D13BE00120C8
:10125000B04010EA080F32D00120B04040EA09093E
:1012600077080120B0406849086000BF6148006805
:1012700010F0200FFAD06548056816F0010F15D15F
:1012800056B915F0040F07D06148006820B16048D6
:1012900001680120884713E05D4850F8270070B1CD
:1012A0005B4850F827100220884708E0584850F85B
:1012B000270020B1564850F827100320884700BF68
:1012C000761C202EC0D300BF04204B490860514833
:1012D000006810F0010F24D04F4805684FF0020657
:1012E0001BE00120B040284216D0770816F0010F0D
:1012F00009D1474850F8270070B1454850F82710E9
:101300000820884708E0424850F8270020B14048AC
:1013100050F8271009208847761C202EE1D33F483B
:1013200005603C48006810F0020F24D03C48056876
:101330004FF002061BE00120B040284216D077088B
:1013400016F0010F09D1324850F8270070B130482B
:1013500050F827100A20884708E02D4850F8270049
:1013600020B12B4850F827100B208847761C202EE0
:10137000E1D32C4805602748006810F0040F24D002
:10138000294805684FF002061BE00120B0402842C2
:1013900016D0770816F0010F09D11D4850F8270024
:1013A00070B11B4850F827100C20884708E01848F7
:1013B00050F8270020B1164850F827100D20884714
:1013C000761C202EE1D31948056000BFBDE8F087E8
:1013D00098000010B01B0000B81B00004C0000106B
:1013E0000000082088C200508CC200500005F500A3
:1013F0000002F50000C2005008C200500005FE00C7
:101400000002FE0000C0005038C2005014C200505C
:101410008C1A000090C20050A0C20050A4C200501C
:10142000ACC20050B0C20050B8C20050BCC20050A4
:1014300035488088B0F5007F38D13348807800285F
:1014400034D13148C078012802D002282DD10AE0D9
:101450002D484078812805D12C4800782C49087007
:101460000120704721E028484078812806D0822852
:101470000AD083280DD0842816D110E02548008892
:10148000234908800120ECE7002021490880012041
:10149000E7E74FF480701E4908800120E1E704204F
:1014A0001B4908800120DCE700BF00BF0020D8E70F
:1014B00015488088B0F5007F20D113488078E8B9BE
:1014C0001148C078012802D0022816D10AE00E483F
:1014D0004078012805D10E4800780C490870012099
:1014E00070470AE008484078012805D1084800887C
:1014F000084908800120F3E700BF00BF0020EFE7A4
:1015000000207047002070472400001034000010B5
:10151000580000105400001003494FF01800ABBEF3
:1015200070470000CDEDFFFF2600020010B52848EF
:101530000078C0F3040010B101283ED13AE02448FD
:10154000C078012804D0022807D003282ED118E043
:101550002048214C206012232AE02049002204E088
:10156000087808B148880144521C19488078904294
:10157000F6D1087808B9002010BD174801604B88E3
:1015800016E01749002204E0087808B10878014401
:10159000521C0F4880789042F6D1087808B9002094
:1015A000EAE70D4801600068037801E00020E3E706
:1015B00000BF04E000BF0020DEE70020DCE700BF42
:1015C00005488088984201D9034CA3800120D3E7C5
:1015D00024000010CC1A00001C000010DE1A0000CD
:1015E0004C1B000027480078C0F3040020B10128FC
:1015F00006D0022841D116E02348244B18603EE073
:101600002348007860B11F480079224B1B7898422C
:1016100006DA0020204B188018461C4B186001E0A9
:10162000002070472BE01748007900F08F0111F07F
:10163000800F05D001F00F034FF48030984001E097
:101640000120884002461248007810B911F00F0FAF
:1016500010D11248006810420CD0114800681042A6
:1016600001D0012000E000200B4B18801846074BEA
:10167000186001E00020D4E701E00020D1E700BFBE
:101680000120CEE724000010040000101C00001010
:10169000070000101400001058000010080000108F
:1016A0000C00001070B5044633480078C0F3040005
:1016B00020B101281DD0022858D11CE02E484088B6
:1016C000012813D144B1FFF777FB2C48008840F084
:1016D00002002A4908800BE00020FFF76DFB274835
:1016E000008820F002002549088001E0002070BD3C
:1016F0003EE00020FBE72048007900F08F0515F060
:10170000800F05D005F00F014FF48030884001E0D4
:101710000120A84006461A48007820B315F00F0FA4
:1017200021D01848006830421DD013484088C0B905
:1017300044B12846FFF7A6FB13480068304312491E
:10174000086012E011480068304201D00120CEE765
:101750002846FFF7A4FB0C480068B0430A4908601C
:1017600003E00020C3E70020C1E701E00020BEE75E
:1017700000BF0120BBE7000024000010040000109F
:1017800007000010080000100C00001010000010EE
:101790002DE9F041002763480078C0F304000028D9
:1017A0007ED16048807800287BD05F4C7EE06078F6
:1017B000022804D0042851D0052870D150E0607967
:1017C00058498978884245D15648807857490870E9
:1017D000207957490870002503E0002055494855F5
:1017E0006D1C042DF9D3012514E00120A8405249B5
:1017F0000968084202D02846FFF72AFB4FF48030E0
:10180000A8404D490968084203D045F08000FFF721
:101810001FFB6D1C102DE8D34FF0011046490860E6
:10182000002046490860464908600120FFF7C5FAD4
:10183000E07910F0400F06D04248008840F00100E7
:101840004049088009E03F48008820F001003D49F8
:10185000088002E06088044428E020E0E7781EE089
:10186000E7B9A07800F08F0515F0800F05D005F0DE
:101870000F014FF48030884001E00120A840064667
:101880002D48006830432C4908602046FFF7B0FA25
:101890002846FFF7D0FA2846FFF7E7FA00BF01E035
:1018A0003AE008E000BF2078044400BF2078002818
:1018B0007FF47DAF26E000201C490870012514E06C
:1018C0000120A8401C490968084202D02846FFF7B9
:1018D000BFFA4FF48030A84017490968084203D086
:1018E00045F08000FFF7B4FA6D1C102DE8D34FF0DF
:1018F0000110114908600020104908601049086073
:10190000FFF75BFA0748807808490978884202D0D7
:101910000020BDE8F08101E00020FAE700BF0120CF
:10192000F7E7000024000010DE1A00000700001096
:101930001400001015000010080000100C0000102A
:1019400010000010040000102DE9F05F00250026B3
:101950000027A84643480078C0F3040001287BD143
:101960004148007810B90020BDE8F09F4FF0000B0F
:101970003E4C6CE06078022804D004280BD0052887
:1019800061D11BE0607938490978884202D06088CB
:1019900004445CE057E0A578E6784FF00008314851
:1019A0000079A84209D12F488078B04205D14FF084
:1019B000010B2F48475D01464E5544E02948007908
:1019C000A8423FD1A07800F08F0919F0800F05D010
:1019D00009F00F014FF48030884002E0012000FA46
:1019E00009F082461F488078B04217D1214800682C
:1019F00040EA0A001F4908601F48006820EA0A0000
:101A00001D4908602046FFF7F3F94846FFF713FA2F
:101A10004846FFF72AFA48EA0A0813E0BE4211D105
:101A200018EA0A0F0ED11348006820EA0A0011498B
:101A300008601148006820EA0A000F49086048461B
:101A4000FFF706FA00BF00BF2078044400BF2078EB
:101A500000288FD102E0FFE7002085E700BF58464D
:101A600082E700002400001007000010DE1A0000CA
:101A700015000010080000100C00001010B5FEF753
:101A800031FC4FF00001016010BD0000FB050000BB
:101A90000000000000000000AF0100000000000096
:101AA0000000000000000000000000000000000036
:101AB0000000000000000000000000000000000026
:101AC0000000000000000000000000001201000201
:101AD00000000040C91F0240000101020301090289
:101AE0006D000201008032090400000001010000C5
:101AF0000924010001270001010C24020101010059
:101B0000010000000009240602010103000009246D
:101B100003030103000200090401000001020000A8
:101B20000904010101010200000724010101010073
:101B30000B24020101021001007D00090503014090
:101B40000001000007250100000000000403090453
:101B50001C034E00580050002000530065006D002B
:101B6000690063006F006E00640020002A034E00CD
:101B70005800500020004C00500043003100370056
:101B800078007800200053007000650061006B0051
:101B90006500720020001A03440045004D004F000C
:101BA00030003000300030003000300030003000B5
:101BB00080000820800108201000000014000000B0
:101BC000F01B000000000010580000000801000099
:101BD000481C0000580000102003000024010000F1
:101BE000481C000000000820200200002401000022
:101BF00000093D000000000000000000000000009F
:101C000000000000000000000000000000000000D4
:101C1000000000000000000000000000200208207A
:101C2000300208200000000000000000000000005A
:101C300000000000000000000000000000000000A4
:081C400000000000000100009B
:04000005000000CD2A
:00000001FF
