:020000040000FA
:1000000020020010E1000000E5000000E700000011
:10001000E9000000EB000000ED000000000000001F
:10002000000000000000000000000000EF000000E1
:10003000F100000000000000F30000001D050000BA
:10004000F7000000F7000000F7000000F7000000D4
:10005000F7000000F7000000F7000000F7000000C4
:10006000F7000000F7000000F7000000F7000000B4
:10007000F7000000F7000000F7000000F7000000A4
:10008000F7000000F7000000F7000000F700000094
:10009000F7000000F700000089050000F7000000ED
:1000A000F7000000F7000000F7000000F700000074
:1000B000F7000000F7000000F7000000F700000064
:1000C000F7000000F7000000F7000000DFF80CD098
:1000D00000F0FAFA00480047B701000020020010C3
:1000E00005480047FEE7FEE7FEE7FEE7FEE7FEE71E
:1000F000FEE7FEE7FEE7FEE7CD0000005348C068DC
:1001000020F040405149C8600846C06840F0404077
:10011000C8604F48006840F480504E49C1F8C400A0
:100120004D484E4908604FF48070C86000BF4FF0E2
:1001300016014FF0010000FA01F04FEA51114FF0A3
:10014000E02202EB8101C1F8000100BF7047444882
:10015000006C40F0FF00424908640846006840F027
:100160007E7008604FF07E70886170473C49496D31
:100170003C4A52F820201143394A516570473849AA
:10018000496D384A52F820209143354A51657047ED
:1001900010B5034600240BE00120A040184203D014
:1001A0002046FFF7E3FF02E02046FFF7E8FF641C6C
:1001B000082CF1DB10BD70B500F0A2F82A490968DF
:1001C0006422B1FBF2F0B0F1807F00D31CE020F09C
:1001D0007F41491E4FF0E022516100BF51170029B5
:1001E00005DA1F21C900214A0B23D15404E01F2145
:1001F000C9001F4A5317D15400BF00214FF0E0221D
:1002000091610721116100BFFFF7A1FF002000F0FD
:10021000CBF9FFF773FF17E01648008804B21548C2
:100220000088844202D01348008804B22546124850
:10023000007848B100201049087029460FA000F04E
:1002400075FA2846FFF7A4FFE6E7000000C0024069
:10025000C4C00F4000C00F402004200000400340F5
:1002600000C00920040C00000000001018ED00E0A0
:1002700000E400E00E000010100000104144207661
:10028000616C7565203D203078253033780A0D008B
:1002900010B504460A2C03D10D21002000F0AAF964
:1002A0002146002000F0A6F9204610BD10B5002020
:1002B00000F0AEF910BD70B504460D462046FFF7BC
:1002C000E7FF70BD10B50446FFF7F0FF10BD014613
:1002D0004FF0FF30704710B504462046FFF7D8FFB7
:1002E00010BD00BFFEE702E008C8121F08C1002AC7
:1002F000FAD170477047000000000000FFFFFFFFC9
:1003000020207649086000BF7448006810F0400F54
:10031000FAD00320724908604FF000007149C1F81B
:10032000A801714908604FF00100704908607048E9
:10033000704908604FF00100A1F1040108604FF01E
:10034000AA006D4908604FF055006649C1F88C005D
:1003500000BF6A48006810F0806FFAD00320684937
:1003600008604FF0AA005F49C1F88C004FF05500BB
:10037000614908604FF000006249086062486349C3
:1003800008604FF000005749C1F8C8015B48006899
:10039000C0F30160032868D15448006810F00300DE
:1003A00006D0012823D002283FD003285CD100E0EA
:1003B00000BF52480068C0F30E0000F101004FEA90
:1003C0004001534801FB00F14648D0F88800C0F3D3
:1003D000074000F10100B1FBF0F141480068C0B2F4
:1003E00000F10100B1FBF0F04A4908603CE04348ED
:1003F0000068C0F30E0000F101004FEA40014648DA
:1004000001FB00F13748D0F88800C0F3074000F145
:100410000100B1FBF0F132480068C0B200F1010008
:10042000B1FBF0F03B4908601EE034480068C0F3BF
:100430000E0000F101004FEA40014FF4FA4001FBC9
:1004400000F12848D0F88800C0F3074000F101000F
:10045000B1FBF0F122480068C0B200F10100B1FB2D
:10046000F0F02C49086000BF2FE02048006810F031
:10047000030006D0012810D0022819D0032823D168
:1004800000E000BF16480068C0B200F1010020493A
:10049000B1FBF0F01F49086016E011480068C0B2D7
:1004A00000F101001C49B1FBF0F01A4908600BE0B3
:1004B0000B480068C0B200F101004FF4FA41B1FBF3
:1004C000F0F01449086000BF00BF0648006820F43F
:1004D000704040F48040034908607047A0C10F405D
:1004E00004C10F4000C00F40ACC10F400CC10F4011
:1004F0006300050084C00F408CC00F4088C00F40CF
:1005000080C00F4008C10F40DE872804C4C00F40E0
:1005100000093D0000000010001BB70010B51E4888
:1005200001680068401C1C4A1060632905D3002044
:10053000114608600120194908701748001D01681C
:100540000068401C144A121D106015480088B1EB69
:10055000202F12D3002011460860081D00784006A5
:10056000000E091D08700846007808B901200870BF
:10057000094808300078FFF70BFE0A48006840F091
:1005800080700849086010BD06484068C0F30B1031
:10059000034908807047000004000010100000109C
:1005A0000E0000100040034060B92D4A126842F06E
:1005B00010022B4B1A601A46126842F040021A6071
:1005C00028490BE0264A126842F40072244B1A6054
:1005D0001A46126842F400621A60234983220A73A1
:1005E00009220A70212281F8282000220A710322A0
:1005F0000A73704702460AB91A4800E01A480346CF
:1006000000BF187D10F0200FFBD0C8B218707047E3
:10061000014609B9134800E01348024600BF107DA7
:1006200010F0010FFBD01078704702460AB90D4850
:1006300000E00D480146087D10F0010F01D0087858
:1006400070470020FCE730B505460C4604E014F87E
:10065000011B2846FFF7CEFF20780028F7D130BDD8
:1006600000C0024000C00040008009402DE9F04772
:10067000002591469A46074688462E46402418E0B3
:1006800022464146384600F041F8B0EB090071EBD4
:100690000A010ED322465146484600F027F83F1A79
:1006A00068EB010822460021012000F01FF84519DF
:1006B0004E41201EA4F10104E2DC284631463A46B0
:1006C0004346BDE8F0870000064C074D06E0E068B1
:1006D00040F0010394E8070098471034AC42F6D389
:1006E000FFF7F8FC240C0000440C0000202A04DB77
:1006F0000023203A00FA02F106E000FA02F39140EA
:10070000C2F12002D040014318467047202A04DB82
:10071000203A21FA02F000217047D040C2F12003B4
:1007200001FA03F31843D140704700000FB410B52D
:1007300003A9044B044A029800F010F810BC5DF8BD
:1007400014FB0000B702000014000010002001E0BC
:1007500001C1121F002AFBD1704700002DE9FF4F95
:1007600093B005460F460026FEE1252875D10024EA
:100770006D1CA346A1460121FF4A2B78203B01FABC
:1007800003F0104202D004436D1CF6E728782A28B3
:1007900016D157F804BBBBF1000F03DA44F4005440
:1007A000CBF1000B44F002046D1C10E00BEB8B004E
:1007B00002EB400044F0020401EB000B6D1C01E071
:1007C0006FF02F022978A1F130000928EED928789E
:1007D0002E2818D115F8010F44F004042A280BD153
:1007E00057F8049B6D1C0EE009EB890002EB4000FA
:1007F00001EB00096D1C01E06FF02F022978A1F1D7
:1008000030000928F0D928786C280ED008DC4C2854
:1008100016D068280CD06A2813D144F400140FE0D5
:1008200074280DD07A280CD10AE044F4801401E039
:1008300044F440146978814202D16D1C04F580149F
:100840006D1C28786E2833D01CDC632847D005DC6B
:10085000002879D0582889D128E0A3E1642801D064
:100860006928F8D10A200021CDE90C01C4F3025017
:10087000022879D1FF1D27F00707D7E90081083743
:100880000F9186E0732834D00CDC6F287ED070285E
:10089000E1D110210022CDE90C1244F004044FF004
:1008A000080998E0752872D07828D4D110218FE0FB
:1008B000C4F30250022804D13868F117C0E900617E
:1008C0000AE0032802D13868068005E00428386869
:1008D00001D1067000E0066007F1040743E101CF93
:1008E0008DF83C0000208DF83D000DF13C0A012000
:1008F00003E057F804AB4FF0FF3061074FF0000101
:100900000CD501E008F101018846494510DA80451F
:10091000F8DB1AF808100029F4D109E001E008F129
:10092000010188468142FADB1AF808100029F6D145
:10093000DDE91523ABEB08092146484600F04AF9EA
:10094000304400EB080606E012E10DE0DDE9151287
:100950001AF8010B9047B8F101008046F6D2DDE9A4
:10096000152321464846FBE002CFCA1788460F925E
:10097000032804D10FFA88F1CA1788460F92042879
:1009800007D14FFA88F0C117804601E01FE01CE054
:100990000F9100230F99B8EB0300994108DA0F99E2
:1009A000D8F1000861EB41014FF02D000F9102E0FA
:1009B000200504D52B208DF80800012003E0E00776
:1009C00001D02020F7E7824653E00A2100E0082109
:1009D0000022CDE90C12C4F30251022907D1FF1DF8
:1009E00027F00707D7E9008208370F920BE00023B2
:1009F00057F8048B0F93032901D11FFA88F80429B3
:100A000001D108F0FF084FF0000A210731D5702806
:100A100004D140208DF80800012013E0DDE90C012D
:100A20001022504008430ED100230F9988EA03009A
:100A30005940084307D030208DF8080028788DF8F9
:100A4000090002208246DDE90C01082250400843DB
:100A50000FD100230F9988EA03005940084301D1C0
:100A6000600706D530208DF808004FF0010AA9F183
:100A70000109297841A0582900D045A001900CA86F
:100A800003900EE0DDE90C2340460F99FFF7EEFDE1
:100A9000019B80469B5C039AA2F1010203921370B2
:100AA0000F9100230F9988EA030059400843E9D1C8
:100AB000039904A8A0EB010000F12008600702D50B
:100AC00024F4803401E04FF001090020C14501DD2C
:100AD000A9EB080000EB080151441090ABEB0100BA
:100AE0001190E00306D4DDE915232146119800F0AA
:100AF00071F806444FF000090DF1080B07E0DDE93D
:100B000015121BF809009047761C09F10109D1451F
:100B1000F5DBE0030CD5DDE915232146119800F043
:100B200059F8064404E0DDE9151230209047761CA0
:100B30001098411E10910028F5DC08E003980399F5
:100B40000078491C0391DDE915129047761CB8F135
:100B50000000A8F10108F1DCDDE915232146119818
:100B600000F025F806446D1C287800287FF4FDADC0
:100B7000304617B0BDE8F08F09280100303132331C
:100B80003435363738394142434445460000000089
:100B900030313233343536373839616263646566F3
:100BA00000000000DDE915129047761CDBE72DE917
:100BB000F0410446002517461E46880407D504E088
:100BC00039462020B04705F10105641EF8D52846B6
:100BD000BDE8F0812DE9F04104460025302790461C
:100BE0001E46C80300D42027880407D404E04146E9
:100BF0003846B04705F10105641EF8D52846BDE822
:100C0000F08100000100000002000000040000006C
:100C1000080000001000000020000000400000005C
:100C200080000000440C0000000000101C000000C8
:100C3000E6020000600C00001C000010040200002E
:100C40004C07000000093D0000000000000000000B
:100C50000100000000000000000000000000000093
:04000005000000CD2A
:00000001FF
